:020000040800F2
:1000000000000320ED530008A5520008A752000885
:10001000A9520008AB520008AD52000800000000D1
:10002000000000000000000000000000AF520008C7
:10003000B152000800000000B3520008B552000899
:100040003D5400083D5400083D5400083D5400084C
:100050003D5400083D5400083D5400083D5400083C
:100060003D5400083D5400083D5400083D5400082C
:100070003D5400083D5400083D5400083D5400081C
:100080003D5400083D5400083D5400083D5400080C
:100090003D5400083D5400083D5400083D540008FC
:1000A0003D540008C55200083D5400083D54000866
:1000B000D55200083D5400083D5400083D54000846
:1000C0003D5400083D5400083D5400083D540008CC
:1000D0003D5400083D5400083D5400083D540008BC
:1000E0003D5400083D5400083D5400083D540008AC
:1000F0003D5400083D5400083D5400083D5400089C
:100100003D540008E55200083D5400083D540008E5
:100110003D5400083D5400083D5400083D5400087B
:100120003D5400083D5400083D540008F5520008B5
:100130003D5400083D5400083D5400083D5400085B
:100140003D5400083D5400083D5400080553000884
:100150003D540008155300083D5400083D54000864
:100160003D5400083D5400083D5400083D5400082B
:100170003D5400083D5400083D54000800000000B4
:100180003D5400083D5400083D5400083D5400080B
:100190003D5400083D5400083D5400083D540008FB
:0C01A00000000000000000003D540008BA
:1001B00010B5054C237833B9044B13B10448AFF3A1
:1001C00000800123237010BDD00200200000000039
:1001D000CC12010808B5034B1BB103490348AFF328
:1001E000008008BD00000000D4020020CC120108ED
:1001F000EC46A0E8F05F80EC108B4FF000007047F9
:10020000B0E8F05FE54690EC108B080008BF0120D5
:10021000704700BF00000000000000000000000068
:1002200001F0FF01102A2BDB10F0070F08D010F8A7
:10023000013B013A8B422DD010F0070F42B3F6D1AB
:10024000F0B441EA012141EA014122F007047FF0C4
:1002500000070023F0E80256083C85EA010586EA1B
:10026000010685FA47F5A3FA87F586FA47F6A5FA57
:1002700087F68EB9EED1F0BC01F0FF0102F0070263
:1002800032B110F8013B013A83EA010313B1F8D10E
:100290000020704701387047002D06BF35460338EF
:1002A000073815F0010F07D1013015F4807F02BF28
:1002B000013015F4C03F0130F0BC0138704700BF79
:1002C000034613F8012B002AFBD1181A0138704796
:1002D00081F0004102E000BF83F0004330B54FEAF7
:1002E00041044FEA430594EA050F08BF90EA020F64
:1002F0001FBF54EA000C55EA020C7FEA645C7FEAF7
:10030000655C00F0E2804FEA5454D4EB5555B8BF19
:100310006D420CDD2C4480EA020281EA030382EA8A
:10032000000083EA010180EA020281EA0303362D1C
:1003300088BF30BD11F0004F4FEA01314FF4801CEF
:100340004CEA113102D0404261EB410113F0004F01
:100350004FEA03334CEA133302D0524263EB4303B8
:1003600094EA050F00F0A780A4F10104D5F1200E56
:100370000DDB02FA0EFC22FA05F2801841F10001B1
:1003800003FA0EF2801843FA05F359410EE0A5F185
:1003900020050EF1200E012A03FA0EFC28BF4CF0B6
:1003A000020C43FA05F3C01851EBE37101F000456C
:1003B00007D54FF0000EDCF1000C7EEB00006EEB79
:1003C0000101B1F5801F1BD3B1F5001F0CD3490803
:1003D0005FEA30004FEA3C0C04F101044FEA44525A
:1003E00012F5800F80F09A80BCF1004F08BF5FEAE1
:1003F000500C50F1000041EB045141EA050130BDC1
:100400005FEA4C0C404141EB0101013C28BFB1F5D2
:10041000801FE9D291F0000F04BF01460020B1FA1D
:1004200081F308BF2033A3F10B03B3F120020CDAF0
:100430000C3208DD02F1140CC2F10C0201FA0CF0CE
:1004400021FA02F10CE002F11402D8BFC2F1200C33
:1004500001FA02F120FA0CFCDCBF41EA0C019040E9
:10046000E41AA2BF01EB0451294330BD6FEA040432
:100470001F3C1CDA0C340EDC04F11404C4F120021D
:1004800020FA04F001FA02F340EA030021FA04F32F
:1004900045EA030130BDC4F10C04C4F1200220FA86
:1004A00002F001FA04F340EA0300294630BD21FAC4
:1004B00004F0294630BD94F0000F83F4801306BF8A
:1004C00081F480110134013D4EE77FEA645C18BF7E
:1004D0007FEA655C29D094EA050F08BF90EA020F15
:1004E00005D054EA000C04BF1946104630BD91EA0D
:1004F000030F1EBF0021002030BD5FEA545C05D110
:100500004000494128BF41F0004130BD14F580044E
:100510003CBF01F5801130BD01F0004545F0FE41C2
:1005200041F470014FF0000030BD7FEA645C1ABFF7
:10053000194610467FEA655C1CBF0B46024650EA2E
:10054000013406BF52EA033591EA030F41F400215A
:1005500030BD00BF90F0000F04BF0021704730B5E0
:100560004FF4806404F132044FF000054FF00001B5
:1005700050E700BF90F0000F04BF0021704730B576
:100580004FF4806404F1320410F0004548BF40424B
:100590004FF000013EE700BF42004FEAE2014FEAA0
:1005A00031014FEA02701FBF12F07F4393F07F4F7B
:1005B00081F06051704732F07F4208BF704793F07E
:1005C0007F4F04BF41F40021704730B54FF4607491
:1005D00001F0004521F000411CE700BF50EA010294
:1005E00008BF704730B54FF000050AE050EA01023D
:1005F00008BF704730B511F0004502D5404261EBAD
:1006000041014FF4806404F132045FEA915C3FF4ED
:10061000D8AE4FF003025FEADC0C18BF03325FEA8A
:10062000DC0C18BF033202EBDC02C2F1200300FA3B
:1006300003FC20FA02F001FA03FE40EA0E0021FA60
:1006400002F11444BDE600BF70B54FF0FF0C4CF44E
:10065000E06C1CEA11541DBF1CEA135594EA0C0F00
:1006600095EA0C0F00F0DEF82C4481EA030621EA3B
:100670004C5123EA4C5350EA013518BF52EA033576
:1006800041F4801143F4801338D0A0FB02CE4FF028
:100690000005E1FB02E506F00042E0FB03E54FF058
:1006A0000006E1FB03569CF0000F18BF4EF0010E50
:1006B000A4F1FF04B6F5007F64F5407404D25FEA4C
:1006C0004E0E6D4146EB060642EAC62141EA5551FF
:1006D0004FEAC52040EA5E504FEACE2EB4F1FD0C41
:1006E00088BFBCF5E06F1ED8BEF1004F08BF5FEABF
:1006F000500E50F1000041EB045170BD06F0004671
:1007000046EA010140EA020081EA0301B4EB5C041D
:10071000C2BFD4EB0C0541EA045170BD41F4801115
:100720004FF0000E013C00F3AB8014F1360FDEBF3A
:10073000002001F0004170BDC4F10004203C35DA16
:100740000C341BDC04F11404C4F1200500FA05F399
:1007500020FA04F001FA05F240EA020001F000423A
:1007600021F0004110EBD37021FA04F642EB0601B0
:100770005EEA430E08BF20EAD37070BDC4F10C04DA
:10078000C4F1200500FA04F320FA05F001FA04F29E
:1007900040EA020001F0004110EBD37041F100018A
:1007A0005EEA430E08BF20EAD37070BDC4F1200595
:1007B00000FA05F24EEA020E20FA04F301FA05F2FD
:1007C00043EA020321FA04F001F0004121FA04F2A5
:1007D00020EA020000EBD3705EEA430E08BF20EA75
:1007E000D37070BD94F0000F0FD101F000464000AF
:1007F00041EB010111F4801F08BF013CF7D041EA31
:10080000060195F0000F18BF704703F00046520034
:1008100043EB030313F4801F08BF013DF7D043EA05
:100820000603704794EA0C0F0CEA135518BF95EABB
:100830000C0F0CD050EA410618BF52EA4306D1D142
:1008400081EA030101F000414FF0000070BD50EA61
:10085000410606BF1046194652EA430619D094EAEB
:100860000C0F02D150EA013613D195EA0C0F05D1D5
:1008700052EA03361CBF104619460AD181EA030129
:1008800001F0004141F0FE4141F470014FF00000E1
:1008900070BD41F0FE4141F4780170BD70B54FF07C
:1008A000FF0C4CF4E06C1CEA11541DBF1CEA1355FC
:1008B00094EA0C0F95EA0C0F00F0A7F8A4EB0504DE
:1008C00081EA030E52EA03354FEA013100F08880D5
:1008D0004FEA03334FF0805545EA131343EA12639E
:1008E0004FEA022245EA111545EA10654FEA002653
:1008F0000EF000419D4208BF964244F1FD0404F50C
:10090000407402D25B084FEA3202B61A65EB030567
:100910005B084FEA32024FF480104FF4002CB6EB24
:10092000020E75EB030E22BFB61A754640EA0C00A4
:100930005B084FEA3202B6EB020E75EB030E22BFE4
:10094000B61A754640EA5C005B084FEA3202B6EB25
:10095000020E75EB030E22BFB61A754640EA9C00E4
:100960005B084FEA3202B6EB020E75EB030E22BFB4
:10097000B61A754640EADC0055EA060E18D04FEA72
:10098000051545EA16754FEA06164FEAC30343EA12
:1009900052734FEAC2025FEA1C1CC0D111F4801FDF
:1009A0000BD141EA00014FF000004FF0004CB6E7D8
:1009B00011F4801F04BF01430020B4F1FD0C88BF77
:1009C000BCF5E06F3FF6AFAEB5EB030C04BFB6EB82
:1009D000020C5FEA500C50F1000041EB045170BD75
:1009E0000EF0004E4EEA113114EB5C04C2BFD4EBA2
:1009F0000C0541EA045170BD41F480114FF0000E26
:100A0000013C90E645EA060E8DE60CEA135594EAA1
:100A10000C0F08BF95EA0C0F3FF43BAF94EA0C0FA4
:100A20000AD150EA01347FF434AF95EA0C0F7FF419
:100A300025AF104619462CE795EA0C0F06D152EA6D
:100A400003353FF4FDAE1046194622E750EA410651
:100A500018BF52EA43067FF4C5AE50EA41047FF462
:100A60000DAF52EA43057FF4EBAE12E74FF0FF3CC7
:100A700006E000BF4FF0010C02E000BF4FF0010C98
:100A80004DF804CD4FEA410C7FEA6C5C4FEA430C11
:100A900018BF7FEA6C5C1BD001B050EA410C0CBF60
:100AA00052EA430C91EA030F02BF90EA020F0020C2
:100AB000704710F1000F91EA030F58BF994208BF29
:100AC00090422CBFD8176FEAE37040F001007047E6
:100AD0004FEA410C7FEA6C5C02D150EA013C07D13D
:100AE0004FEA430C7FEA6C5CD6D152EA033CD3D088
:100AF0005DF8040B704700BF8446104662468C4682
:100B00001946634600E000BF01B5FFF7B7FF0028B4
:100B100048BF10F1000F01BD4DF808EDFFF7F4FFDD
:100B20000CBF012000205DF808FB00BF4DF808ED68
:100B3000FFF7EAFF34BF012000205DF808FB00BF8B
:100B40004DF808EDFFF7E0FF94BF012000205DF8AD
:100B500008FB00BF4DF808EDFFF7CEFF94BF012062
:100B600000205DF808FB00BF4DF808EDFFF7C4FF5B
:100B700034BF012000205DF808FB00BF4FEA410CA4
:100B80007FEA6C5C02D150EA013C0AD14FEA430C87
:100B90007FEA6C5C02D152EA033C02D14FF00000C4
:100BA00070474FF0010070474FEA410212F5001202
:100BB00015D211D56FF47873B3EB625212D94FEAA4
:100BC000C12343F0004343EA505311F0004F23FA8E
:100BD00002F018BF404270474FF00000704750EAE3
:100BE000013005D111F0004008BF6FF000407047A0
:100BF0004FF00000704700BF53B94AB9002908BF41
:100C000000281CBF4FF0FF314FF0FF3001F052B908
:100C1000ADF1080C6DE904CE00F006F8DDF804E053
:100C2000DDE9022304B070472DE9F047089D8E46A8
:100C300004468846002B4AD18A42174662D9B2FA46
:100C400082F64EB1C6F1200301FA06F820FA03F34A
:100C5000B74043EA0808B4404FEA174E1FFA87FC32
:100C6000B8FBFEF1230C0EFB118843EA084301FB9D
:100C70000CF29A4209D9FB1801F1FF3080F0EA80AA
:100C80009A4240F2E78002393B449A1AA3B2B2FB7F
:100C9000FEF00EFB102243EA024300FB0CFC9C45D5
:100CA00009D9FB1800F1FF3280F0D6809C4540F254
:100CB000D3803B44023840EA0140A3EB0C030021FF
:100CC0001DB1F3400022C5E90032BDE8F0878B4238
:100CD00005D90DB1C5E9000100210846F5E7B3FAD1
:100CE00083F1002946D1734502D3824200F2058187
:100CF000841A6EEB030201209046002DE5D0C5E971
:100D00000048E2E7002A00F09080B2FA82F6002E56
:100D100040F0A4808A1A030C4FEA174E80B2BCB28E
:100D20000121B2FBFEFC0EFB1C2243EA024304FB42
:100D30000CF29A4207D9FB180CF1FF3802D29A4202
:100D400000F2E080C4469B1AB3FBFEF20EFB1233A6
:100D500040EA034302FB04F49C4207D9FB1802F16A
:100D6000FF3002D29C4200F2CA8002461B1B42EABC
:100D70000C40A5E7C1F120068B4022FA06F71F437D
:100D80000EFA01F420FA06F32EFA06FE4FEA17498E
:100D9000234300FA01F81FFA87FCBEFBF9F01C0C94
:100DA00009FB10EE44EA0E4400FB0CFEA64502FAD5
:100DB00001F209D93C1900F1FF3A80F09C80A64568
:100DC00040F2998002383C44A4EB0E041FFA83FEE3
:100DD000B4FBF9F309FB13444EEA044403FB0CFC97
:100DE000A44508D93C1903F1FF3E80F08280A44558
:100DF0007FD9023B3C4443EA0040A4EB0C04A0FB37
:100E000002EC64457346E14662D35FD05DB1B8EB56
:100E1000030264EB090404FA06F622FA01F31E4306
:100E2000CC40C5E9006400214FE7B1FBF2FC010CA6
:100E300041EA0E4180B240EA01423B4638463C4618
:100E4000B846BE462026B1FBF7F1A2EB080241EA04
:100E50000C4166E7014618E710462CE7C6F1200270
:100E60002EFA02F3B740B14020FA02F24FEA174ED1
:100E70000A43B3FBFEF8BCB20EFB1833110C41EA77
:100E8000034108FB04F9B04089454FEA104380B2A2
:100E90003ED9791808F1FF3C01D289451FD8A1EB52
:100EA0000901B1FBFEF909FB04F80EFB191192B21E
:100EB00042EA0142424529D2BA1809F1FF31C4D2AF
:100EC0004245C2D2A9F102013A44BEE7F0459DD2A3
:100ED000BEEB02036CEB070C0138E14696E7A7EB8B
:100EE00009094944A8F1020CB1FBFEF909FB04F819
:100EF000DBE773467FE7504666E70846FDE63B447E
:100F0000023A33E7ACF1020C3B441CE749469CE74C
:100F1000A1EB0901C446B1FBFEF909FB04F8C4E7E3
:100F200003685A004CBF43F0004323F000431844C9
:100F3000704700BF2DE9F04759B301F1FF3805466E
:100F4000164647464FF0000A0AEB070101EBD17144
:100F5000491005EBC1094846FFF7E2FF88454FEA13
:100F6000C104034610D004F10800B342284407D856
:100F7000FFF7D6FF0138B04208D201F1010AE3E7DA
:100F80008A4506D04F1EDFE7B042F9D84846BDE893
:100F9000F0874FF000094846BDE8F087012809D0E6
:100FA000022805D0044B00280CBF184600207047CB
:100FB00002487047024870478116000889160008E9
:100FC0008516000830B5224B83B004468D1E43B30E
:100FD00001A92846AFF30080F0B101992A46FFF736
:100FE000A9FF0146C0B1FFF79BFF4B68A064012B2E
:100FF0002BD0002B01F1040025DBFFF791FF00232C
:1010000023650368E064002B12DBFFF789FF0346CA
:101010000020236103B030BD00230920236103B009
:1010200030BD0C4B0C49C91AC91018460191D5E7BF
:10103000C3F30360FFF7B2FF031E0CBF09200020BB
:10104000236103B030BD0123DAE700230520E0E788
:1010500000000000142C0108D42C01080368DA07F2
:1010600010B5044606D49B0700F1500009D500F0E6
:101070008FFC2368590709D51A070ED5DB0613D54F
:1010800010BD00F07DFC23685907F5D404F1D800A9
:1010900000F086FC23681A07F0D404F5AC7000F069
:1010A00087FC2368DB06EBD404F5EC70BDE8104048
:1010B00000F0C2BC0346006800B11844704700BF8E
:1010C00009207047704700BF70B504460E46316C6A
:1010D0002046FFF777FF054688B9326C62612369C5
:1010E00032462146012098470828F0D0072806D12B
:1010F0002846316CFFF7E6FF301D00F035FC10F09C
:1011000091F800BF2DE9F04701F1040CC768D0F851
:10111000188006469146BCE80F00ADF5767D03AC1D
:101120000FC4BCE80F000FC4BCE80F000FC49CE85C
:101130000F0002AD4FF0000E84E80F00C5F800E08C
:1011400021E02B6C73614FF4F47229467CA80EF0F9
:10115000E6F833697CAA3146504698478A9BAB64CF
:101160004946CDE900588246334601203246B84709
:10117000814630BB4FF4F4727CA928460EF0CFF8BC
:10118000BAF1080F1AD1296C3046FFF71BFF09F19D
:10119000090904465FFA89FA0028D2D0AB6BAB6428
:1011A0003246CDE9005833464AF010010120B847D5
:1011B00038B920460DF5767DBDE8F087BAF1070F06
:1011C00005D0092420460DF5767DBDE8F087484618
:1011D000296CFFF777FF03A800F0C6FB806C70470F
:1011E000F0B5CB6BFBB001F1040C0B640E46054669
:1011F000BCE80F0001AC0FC4BCE80F000FC4BCE892
:101200000F000FC49CE80F004FF0FF3784E80F0079
:10121000009706E02B696A46294698470828044645
:1012200008D110992846FFF7CDFE0028F2D00920FA
:101230007BB0F0BD6846FFF711FF062CF7D13146B1
:101240002846FFF741FF00BFC160D96B8261196476
:101250000022194656E700BF70B5C66843690B64A3
:10126000AEB903690A4604460D4601460220984776
:10127000072805D008280FD129462046FFF724FF6C
:101280003046296CFFF71EFF281D00F06DFB012280
:10129000FFF738FF0FF0C6FF0FF0C4FFC2681AB1A6
:1012A000CA6B0A6400222DE79AE700BF704700BFAF
:1012B000836801460BB1012018477047052915D8EE
:1012C000DFE801F00A031403030501207047009AC8
:1012D000436C13600020704743B90F2A06D800EB17
:1012E000820200205368009A136070470220704702
:1012F00000B585B00A46002303A900911946FFF7FF
:10130000DDFF039805B05DF804FB00BF052915D883
:10131000DFE801F00A031403030501207047009B76
:101320001B6843640020704743B90F2A06D8009B0E
:1013300000EB82021B685360002070470220704758
:1013400010B584B0002303AC039200940A461946FA
:10135000FFF7DCFF04B010BD70B5D36BADF5107DA9
:1013600002F1040C136405460C46BCE80F000DF1B5
:101370005C0EAEE80F00BCE80F00AEE80F00BCE862
:101380000F00AEE80F009CE80F004FF0FF368EE82C
:101390000F00169610E0FFF7D3FF214616A8A847C6
:1013A000034616AA0820694683B9049B9847052876
:1013B00006460CD0092809D026996846FFF702FE98
:1013C00003460C216A4616A8002BE4D0092616A86D
:1013D000FFF744FE30460DF5107D70BD2DE9F04F4E
:1013E0001646CA6C89B00D4652F8041B069200F0EE
:1013F000030C002B79D00C0C8DF81D400904E4B2CD
:10140000059102EB840202218DF81C10296DBCF1BC
:10141000020F08BFAA6B11F0010809D005A93046D8
:1014200000F0A4FB002856D1082009B0BDE8F08FD9
:101430001768002FF2D000F00801CDE90118E3464B
:101440009A46BAF1020F4CD01788548802F1040969
:10145000AA6C24F001030F21304603EB0208FFF7CA
:1014600047FF80453BD827F0010202EB0803834287
:1014700094BF00230123640004F0020407F0010775
:101480002743012F4ED0022F35D027BBBBF1000FD1
:1014900002D0002B40F0D38009F104021768002F1E
:1014A000CFD105A93046DDF8088000F05FFB90B988
:1014B000B8F1000FB8D00F213046FFF719FF0E2109
:1014C00002463046FFF73CFF6C4A0F213046FFF7DB
:1014D00037FF072000E0092009B0BDE8F08F0023A6
:1014E000C9E7546802F10809B2E7090205918DF8CD
:1014F0001D30032188E7D9F8004024F00048BBF1F3
:10150000000F47D12BB1019B002B5CD0B8F1000F2D
:1015100059D0002C01DA09F1040908F1010209EBA4
:101520008202BBE7BBF1000F1CD1C3B1D9F8043074
:10153000D9F80020991C4FEAD272CCD005F158049A
:101540000133049400F08E8009F10400FFF7B2FD2E
:1015500004AB01462846AFF30080002859D109F1B9
:1015600008029BE70D213046FFF7C2FE2C6A844239
:10157000F5D1AB6A9945F2D14846FFF7D1FC0F216E
:1015800002463046FFF7DCFE2A4600213046FFF7D0
:10159000D7FE9EE70D213046FFF7AAFE2F6A87424D
:1015A000B7D1AB6A9945B4D100240423C5E90B43F4
:1015B0004B44C5F828806B63D9F80030A34258DB50
:1015C00001230293A9E705F15803CDF80CB009F106
:1015D0000407B34600241E460BE038460496FFF786
:1015E00069FD0022014604AB2846AFF300800437B2
:1015F000F8B9444504F10104EFD10D215846FFF735
:1016000077FE049BC5F828900246C5E9082306200A
:1016100062E704460D213046FFF76AFE049E286209
:10162000022C04BFEE6205F12C06C5E9096906200B
:1016300052E75E46D9F80040DDF80CB069E748464D
:10164000FFF76EFC09F104030446AB632846AFF3D1
:10165000008000283FF43FAF22460F213046FFF7BD
:101660006FFE36E730460D21FFF742FE2646286220
:10167000DBE708F1010209EB82007EE700000000D1
:101680000023ABE60123A9E60223A7E62DE9F041FA
:101690000646C4B01446052900F2E880DFE811F0E0
:1016A00012002D00E60066008B000600836B002C04
:1016B00040F0DC8053F8042B42648363002044B084
:1016C000BDE8F081002B40F0D180856B1FFA84FCCF
:1016D000012006F1040E00FA03F111EA0C0F2A466C
:1016E00004D052F8041B4EF8231015460133102B7A
:1016F000F1D1A704E2D4B563E0E7012B4FEA144728
:10170000A4B27CD0052B40F0B18007EB0408B8F1FF
:10171000200F00F2AB800F2F40F2AA80002CCDD01A
:101720000268550700F1FF80019302AD284600F0E2
:101730003BF96400A7F11000B26B019B611E05EB41
:10174000C0000131043802EB810152F8044B40F82B
:10175000044F8A42F9D1012B00F0CD800F2FB263E4
:1017600040F2E980284600F01BF9A7E7032B7DD162
:10177000A7B207EB1443102B4FEA144476D8036842
:10178000190700F1A48022AD284600F033F97A0051
:10179000B06B05EBC404531E42B1011B625844F800
:1017A000042B013B5A1CF9D100EBC700B06328465B
:1017B00000F0FEF882E7002B58D1102C56D80368B1
:1017C000D8067CD422AD284600F040F9B76B2946F4
:1017D00000234FF0010C0CFA03F22242384603F1C9
:1017E000010303D050F8042B0A600746042B01F1D3
:1017F0000401F0D1B763284600F01EF95EE73A19FC
:10180000102A33D8102F31D00268D10708D53046BE
:1018100022F0030240F8502B019300F0B5F8019B31
:10182000019322AD284600F0AFF8B16B019B002C6C
:1018300062D06200013A05EBC7004FF000080132A8
:10184000043801EB820251F8044B40F8044F9142F6
:10185000F9D1B8F1000F42D1012B4DD00F2FB16358
:101860003FF62CAF284600F093F827E7022026E742
:101870000268B8F1100F02F0010143D951B122F012
:10188000010242F0020240F8502B019300F084F86C
:101890003268019B0193500751D422AD284600F0D5
:1018A0007BF802A800F080F8C7F110025200B16B7B
:1018B000019BA8F11008013A05EBC700BFE723F030
:1018C0001003336006F5EC7000F0C0F87AE723F0FF
:1018D0000803036000F5AC7000F08CF853E7102F9C
:1018E000384638BF10204FEA4801103802AD0139A0
:1018F00005EBC00025E722AD0431B163284600F0B6
:101900003FF8DBE619BB22AD2846019300F044F80E
:10191000B16B002CA6D06200019B013A05EBC70019
:101920004FF000088BE722F0040240F8D82B019317
:1019300000F03AF8F9E622A800F02AF812E730465B
:1019400022F0040240F8D82B00F02EF8A5E730462C
:1019500022F0010242F0020240F8502B019300F005
:101960001BF8019BCFE700BF00F1340191E838007C
:101970009C46A6464CF8045D90E8FF0FE54600BD86
:1019800090EC210B704700BF80EC210B704700BF2B
:1019900090EC200B704700BF80EC200B704700BF1D
:1019A000D0EC200B704700BFC0EC200B704700BF8D
:1019B000F0EC0201F0EC0211F0EC0221F0EC02314B
:1019C000F0EC0241F0EC0251F0EC0261F0EC02713B
:1019D000F0EC0281F0EC0291F0EC02A1F0EC02B12B
:1019E000F0EC02C1F0EC02D1F0EC02E1F0EC02F11B
:1019F000704700BFE0EC0201E0EC0211E0EC0221D4
:101A0000E0EC0231E0EC0241E0EC0251E0EC02617A
:101A1000E0EC0271E0EC0281E0EC0291E0EC02A16A
:101A2000E0EC02B1E0EC02C1E0EC02D1E0EC02E15A
:101A3000E0EC02F1704700BFB0FC0181B0FC019105
:101A4000B0FC01A1B0FC01B1704700BFA0FC018156
:101A5000A0FC0191A0FC01A1A0FC01B1704700BF56
:101A6000EC4600B52DE900502DE9FF1F4FF00003B3
:101A70002DE90C0001A9FFF7B3FBDDF840E012B03F
:101A8000704700BFEC4600B52DE900502DE9FF1F5F
:101A90004FF000032DE90C0001A9FFF7DDFBDDF895
:101AA00040E012B0704700BFEC4600B52DE9005091
:101AB0002DE9FF1F4FF000032DE90C0001A9FFF7EE
:101AC000EDFBDDF840E012B0704700BFEC4600B51A
:101AD0002DE900502DE9FF1F4FF000032DE90C0008
:101AE00001ABFFF7B1FBDDF840E012B0704700BF7B
:101AF000EC4600B52DE900502DE9FF1F4FF0000323
:101B00002DE90C0001AAFFF727FCDDF840E012B038
:101B1000704700BF027A03467AB9427AA2B141689F
:101B2000013A10B44272086803220C1D1A720202B4
:101B30005C60000E10BC1A6070470068013A1A72AF
:101B400002021A60000E7047B020704700B585B0E1
:101B500003AA0023009219460C22FFF7AFFB03985B
:101B600005B05DF804FB00BFF0E700BF2DE9F043CE
:101B7000064685B00D464FF000082846FFF7CAFF1D
:101B8000B028044600F01C8107065BD500F0F00386
:101B9000A02B1AD030D8802B00F08280902B27D138
:101BA00000F00D030D2B23D002AF002300F00F0235
:101BB000194600973046FFF781FB002300970D225E
:101BC00019463046FFF7A2FBD7E7C34303F00703EC
:101BD0004FF47F621A41010702F47F6201D542F49B
:101BE0008042002319463046FFF750FD0028C4D03C
:101BF000092005B0BDE8F083B02B68D0C02B3DD1E3
:101C0000C62800F0CA80C72800F0DF8000F0F80383
:101C1000C02B00F0EC80C82800F0F780C928E7D17D
:101C20002846FFF777FF020300F00F0002F470224E
:101C300001300243012105233046FFF727FD00282C
:101C40009BD0D5E78300DBB21F1D0DF108090023EF
:101C50001946CDF800900D223046FFF72FFB029B6E
:101C6000CDF8009060064CBFDF1BFF1800230D224B
:101C7000194630460297FFF749FB7EE700F0F8036C
:101C8000D02BB5D100F007020132052342F4002227
:101C900001213046FFF7FAFC00283FF46EAFA7E7BA
:101CA0002846FFF737FF24022043B0F5004F9FD0AE
:101CB00004010023A2B219463046FFF7E7FC0028D2
:101CC00096D114F4004F18BF4FF0010855E7A0F16A
:101CD000B103042B00F2B580DFE803F05529160CA0
:101CE000030003AA0023009219460D223046FFF795
:101CF000E5FA42E700231A4605213046FFF7C6FC05
:101D000000283FF43AAF73E72846FFF703FF0203CA
:101D100000F00F00013002F4702201230243194643
:101D20003046FFF7B3FC00283FF427AF60E70023FD
:101D30000DF108090D221946CDF800903046FFF745
:101D4000BDFA2846FFF7E6FE0206029C4FF00207A6
:101D50000BD500F07F00B840044428460294FFF7FA
:101D6000D9FE030607F10707F3D4B840002304F5B2
:101D700001740444CDF800900D22194630460294B7
:101D8000FFF7C4FAF9E62846FFF7C4FE431EDBB2AC
:101D90000E2B02467FF625AF2AE72846FFF7BAFE4C
:101DA000020300F00F00013002F47022032302430B
:101DB00019463046FFF76AFC00283FF4DEAE17E70D
:101DC000B8F1000F2DD0002013E72846FFF7A2FE40
:101DD000431EDBB20E2B02463FF60AAF002304215E
:101DE0003046FFF753FC00283FF4C7AE00E700F091
:101DF0000F020132032342F4202219463046FFF736
:101E000045FC00283FF4B9AEF2E62846FFF782FE13
:101E100000F0F00200F00F031032013343EA023207
:101E200008E702AC4346414600940E223046FFF7D5
:101E300045FA0F220094434641463046FFF766FAC2
:101E4000C1E700F0FC03B42B3FF4D2AE00F0070270
:101E50000132012342F4002219463046FFF716FCF6
:101E600000283FF48AAEC3E610B5C26C536884B054
:101E70004FF0030C08321C0208461B0E01A9019406
:101E800002928DF80CC08DF80D30FFF76FFE04B094
:101E900010BD00BF08B5FFF767FE806C08BD00BF2E
:101EA00008B5FFF761FEC06CC37900EB8300083012
:101EB00008BD00BF704700BFF0B50023136001F0FC
:101EC0000105C1F34001431C2B440B4403F0010303
:101ED0007F4C1026A66126684FF4807494FAA4F40F
:101EE000B4FA84F464004FF0030C0CFA04F426EA0C
:101EF000040C4FF4807494FAA4F4B4FA84F46400EB
:101F00000126A64046EA0C06714C26604FF4800676
:101F1000A6614FF48077A7614027A761A6610028DA
:101F200000F0978020464FF4807484616848402612
:101F300086614FF4800484614FF480778761866105
:101F40008461002D00F08A808761614840248461AB
:101F50004FF480048461002900F0858001464FF42D
:101F6000807088615A49402088614FF48000886100
:101F7000002B7DD00B464FF480719961544B40206B
:101F800098614FF4800199614FF080749C61986171
:101F900099614FF48071996198614FF48010986154
:101FA0001B6891FAA1F1B1FA81F14900032000FA0E
:101FB00001F123EA0101464B19604FF48001996158
:101FC00040219961002001461C464FF480064025BF
:101FD000A6612369A561C3F300238B401843013137
:101FE0000329F5D1012848D0022803D0042814BFC2
:101FF00004200320364B4FF480029A6140229A61FC
:1020000010229A6119684FF4807393FAA3F3B3FA1C
:1020100083F35B00032202FA03F321EA03014FF486
:10202000807393FAA3F3B3FA83F35B00012202FAFD
:1020300003F30B43264A13600822254B4FF4800517
:102040004FF0807440219D619C619961013AFAD101
:10205000F0BD1F484FF08074846167E71C484FF063
:102060008074846171E71A494FF08070886179E764
:10207000174B4FF08071996180E74FF0000E734667
:10208000134C4FF480064025A661216901F480714C
:10209000A561002914BF4FF0010C4FF0000C0CFAA1
:1020A00003FC116841EA0C01116018BF8EF0010EAB
:1020B0000133202BE8D1064A4FF480039361136962
:1020C00040219161C3F300239E4518BF052091E78D
:1020D00000040240F0B401F00106C1F3400185198B
:1020E0000D4405F00105934C1027A76127684FF4B4
:1020F000807494FAA4F4B4FA84F464004FF0030CEE
:102100000CFA04F427EA040C4FF4807494FAA4F453
:10211000B4FA84F464000127A74047EA0C07854C11
:1021200027604FF48007A7614FF4807CC4F818C083
:102130004FF0400CC4F818C0A761002800F092804E
:1021400020464FF4807484617A48402787614FF4B9
:10215000800484614FF0807CC0F818C0876184617E
:10216000002E00F084804FF4807484617148402414
:1021700084614FF48004846100297DD001464FF4CE
:10218000807088616B49402088614FF480008861CD
:10219000002D76D04FF480708861664940248C61B0
:1021A0004FF4800088614FF080758D618C6188618B
:1021B0004FF4807088618C614FF480148C610C68DE
:1021C00090FAA0F1B1FA81F14900032000FA01F17F
:1021D00024EA010457490C604FF4800088614020D4
:1021E0008861002420460D464FF480074026AF61E9
:1021F0002969AE61C1F30021A14008430134032CD9
:10220000F5D1012802D0002B00F08D80494B4FF40E
:1022100080019961402199611021996118684FF4FA
:10222000807393FAA3F3B3FA83F35B00032101FAFB
:1022300003F320EA03004FF4807393FAA3F3B3FA95
:1022400083F35B00012101FA03F3034339490B6077
:10225000002423464FF480054FF0807C40264FF445
:10226000807719E033484FF0807484616CE731481F
:102270004FF08074846179E72E494FF08070886157
:1022800080E72C494FF08070886186E7C1F818C05C
:102290008E610133202B0AD08D6122FA03F010F0F9
:1022A000010FF3D08F618E6184F00104F1E7214BBF
:1022B0004FF480029A618CB34FF480729A611D4B87
:1022C00040229A6101201B4B10229A6119684FF439
:1022D000807393FAA3F3B3FA83F35B00032202FA49
:1022E00003F321EA03014FF4807393FAA3F3B3FAE3
:1022F00083F35B00012202FA03F30B430D4A1360E0
:1023000008220C4B4FF480054FF0807440219D61F2
:102310009C619961013AFAD1F0BC7047054B4FF0CE
:1023200080729A61CBE70228CDD0042814BF042024
:102330000320C8E70004024070B42F4B10229A61BA
:1023400019684FF4807393FAA3F3B3FA83F35B0035
:10235000032202FA03F321EA03014FF4807393FA94
:10236000A3F3B3FA83F35B00012202FA03F30B43F6
:10237000214A13604FF4807393613C234FF4800033
:10238000402190619161013BFBD100231A4A4FF437
:1023900080044EF29E7C4FF080764FF48075402092
:1023A00094614CFA03F111F0010F14BF956196612D
:1023B00090610133102BF3D10F4B4FF480729A616F
:1023C0003C230D4A4FF48000402190619161013B14
:1023D000FBD1094B4FF080729A61102302F17C52BD
:1023E00002F501324FF48000402190619161013B80
:1023F000FBD170BC704700BF000402402DE9F041E2
:1024000006460D46C8244FF00008012743462A46D9
:1024100031463846FFF75EFE02280AD1013CF5D16D
:10242000064B1A680146A020054B00FB0230FDF761
:10243000E7FE0128F4D1BDE8F08100BF00000020D4
:10244000F0020020F8B507460E46C82400252B46AA
:10245000324639462846FFF73DFE02280AD1013CA4
:10246000F5D1064B1A680146A020054B00FB02304F
:10247000FDF7C6FE0128F4D1F8BD00BF0000002022
:10248000F0020020F8B506460D46C82401272A466A
:1024900031463846FFF710FD02280AD1013CF6D13B
:1024A000054B1A680146A020044B00FB0230FDF7E3
:1024B000A7FE0128F4D1F8BD00000020F0020020A2
:1024C000F8B506460D46C82400272A463146384648
:1024D000FFF7F2FC02280AD1013CF6D1054B1A683D
:1024E0000146A020044B00FB0230FDF789FE0128C5
:1024F000F4D1F8BD00000020F002002030B583B018
:1025000000240194FFF718FF01A92046FFF7D8FF28
:1025100004212046FFF796FF184D29460120FFF7BA
:10252000CFFF21460120FFF78DFF29460120FFF74D
:10253000C7FF4FF0A0410120FFF784FF4FF49674CE
:10254000012569462846FFF7BBFF009B03F02043A7
:10255000B3F1204F0AD0013CF3D1094B1A68152181
:10256000A020084B00FB0230FDF74AFE00210220AC
:10257000FFF768FF019803B030BD00BFEC020020F8
:1025800000000020F002002000B583B0F0210220FE
:10259000FFF758FF01A90320FFF774FF01A90320EB
:1025A000FFF78EFF00210220FFF74CFF019803B0D8
:1025B0005DF804FB08B502490020FFF71FFF08BDC6
:1025C0000200002208B502F08DFF08BD044B1A6816
:1025D000002353620138536A8342FCD3704700BF23
:1025E000244300200138142834D8DFE800F00B35EC
:1025F0000D0F1113153117191B1D1F212325272915
:102600002B2D2F0015487047154870471548704707
:10261000154870471548704715487047154870476A
:10262000154870471548704715487047154870475A
:10263000154870471548704715487047154870474A
:10264000154870471548704715487047154870473A
:10265000154870471548704715487047E81201083B
:1026600020130108401301086C1301087C130108B2
:10267000881301089C130108B4130108D013010842
:102680000C14010824140108481401087C140108E2
:10269000A0140108CC140108E0140108F814010882
:1026A00010150108381501085C1501086C150108A2
:1026B000F4120108F0B583B014490120FFF79EFE23
:1026C00013490320FFF79AFEC824104F0126032563
:1026D00039463046FFF792FE01A92846FFF7D2FEA1
:1026E00001A92846FFF7ECFE019B13F4003F0AD135
:1026F000013CEDD1074B1A681421A020064B00FBCA
:102700000230FDF77DFD03B0F0BD00BFF0ED00E04D
:1027100003005FA000000020F002002010B5084C6C
:1027200000224FF48071204603F034FB3220FFF783
:1027300049FF01224FF48071204603F02BFB10BDAE
:102740000000024000B583B001460120FFF756FEAD
:1027500001A90320FFF796FE01A90320FFF7B0FEB1
:10276000019803B05DF804FB10B50C46014601204A
:10277000FFF744FE21460320FFF740FE10BD000096
:1027800070B500211F48FFF7EFFF1F4C2046FFF7F1
:10279000D9FF2046FFF7D6FF1C491D48FFF7E4FF8D
:1027A0006420FFF713FFC8240A26174D3046FFF7B1
:1027B0000DFF2846FFF7C6FF10F0007F0AD1013C4D
:1027C000F4D1144B1A681021A020134B00FB0230E7
:1027D000FDF716FDC8240A260B4D3046FFF7F6FE1E
:1027E0002846FFF7AFFF10F0007F0AD0013CF4D17C
:1027F000084B1A681021A020074B00FB0230FDF7A0
:10280000FFFC70BDFCED00E0F0ED00E00400FA0517
:102810000CED00E000000020F00200200B4B98427D
:1028200010D003F1BF4303F5BE0303F58053984274
:102830000AD003F14043A3F58053984214BF00200F
:102840000120704701207047012070477714C10BA9
:10285000094B98420CD003F10043303B984209D019
:1028600003F120431033984214BF00200120704729
:1028700001207047012070473100770438B50546C4
:102880004FF4FA70FFF7A2FEFFF738FE0446286007
:10289000FFF7C4FF68B11424FFF776FE6860FFF706
:1028A000D7FF08B9013CF7D1FFF784FEFFF702FF1D
:1028B00038BD214605480CF0D7FA054B1A680821A7
:1028C000A020044B00FB0230FDF79AFC7C150108A8
:1028D00000000020F002002070B51546334B1C7834
:1028E0000CB9334B18602A46324820440CF017FDCF
:1028F0002C44E4B22D4B1C702F4BDB68B3F5906F6A
:1029000014BF082204229600B4EB820F10D265BBDC
:102910006CB3294BDB68B3F5906F2CD0C4F1200267
:10292000FF21244820440CF07BFC202408222BE0CB
:1029300020491F4B186801F087FBA0B91C4A136897
:1029400033441360194B1C78A41BE4B21C700CB9FF
:1029500001200BE01748224681190CF047FC002D9E
:10296000D7D0012002E0002000E0012070BD01204E
:10297000FCE70020FAE7C4F11002FF210D482044D3
:102980000CF04EFC10240422084B1C700949084B23
:10299000186801F059FB0028EBD1054A136823445D
:1029A0001360024B00221A700120DFE794410020DF
:1029B0009041002070410020984100206AB32DE929
:1029C000F04D82B0074690460D46164600244FF063
:1029D000FF3A4FF0FF3B0EE0D5E90023CDE900239D
:1029E000DDE90023381901F047F970B90834083ED1
:1029F000083544450FD2CDE900AB072EECD832465E
:102A0000294668460CF08BFCEAE701F0CBF8002081
:102A100002B0BDE8F08D0120FAE7012070476AB3EB
:102A20002DE9F04D82B0074690460D46164600242B
:102A30004FF0FF3A4FF0FF3B0EE0D5E90023CDE920
:102A40000023DDE90023381901F068FC70B908346F
:102A5000083E083544450FD2CDE900AB072EECD82F
:102A60003246294668460CF05AFCEAE701F0ECFBD6
:102A7000002002B0BDE8F08D0120FAE70120704788
:102A800000B583B001904FF6FF73012201A90348FE
:102A900006F063FA019803B05DF804FBDC42002005
:102AA0000FB410B5D6B058AB53F8042B15934FF4B0
:102AB000807116A80CF0F8FA1B4C002210A92046D1
:102AC00004F0CBFC00220FA9204604F0ECFCE168E6
:102AD0009DF83F30119A8A1A4FF47A7000FB02F287
:102AE0000131B2FBF1F205929DF8422004929DF86B
:102AF000412003929DF8402002929DF83E200192D1
:102B00009DF83D20009203F5FA63084A202107A8AA
:102B10000CF022FA16AA07A905480CF0A5F956B040
:102B2000BDE8104004B070475045002094150108DE
:102B3000B815010810B58448FFF7B2FFFFF7EEFDA6
:102B40003220FFF73FFD814B18680130186000EB21
:102B500080007F4B03EB4010FDF74AFB002840F05C
:102B6000C3817C4C2046FFF789FE21687A4B99424D
:102B700062D07A4B994265D0794B994268D17948B5
:102B8000FFF7E0FDC0F30B00A0F24340502800F235
:102B9000A381DFE810F06800A101A101A101A1015A
:102BA000A101A101A101A10168006800A101A10189
:102BB0002A01A101A1016800A101A101A800A101B0
:102BC000A1010901A101A101A101A101A101A1018D
:102BD000A800A101A101A101A101A101A800A800D3
:102BE00079017901A101A101A101A101A101A10125
:102BF000A101A101A101A101A101A101A101A101C5
:102C0000A1017901A101A101A101A101A101A101DC
:102C10002A01A101A1012A01A1012A01A101A10109
:102C2000A1010901A101A101A101A101A101A1012C
:102C3000A101A101A10168004B48FFF783FDC0F38A
:102C40000B00A1E74948FFF77DFDC0F30B009BE7B0
:102C50004748FFF725FF3F4B00221A72DA60002039
:102C60003A4B18604DE13B4C052323723D48FFF77A
:102C700069FDC0F30B01E1603E48FFF711FFE16819
:102C800040F25343994212D840F24243994226D926
:102C9000A1F24343102B22D8DFE803F011212121B8
:102CA0002121212121191D2121212121150040F25D
:102CB0009343994213D13048FFF7F2FECFE72F48F4
:102CC000FFF7EEFECBE72E48FFF7EAFEC7E72D48F9
:102CD000FFF7E6FEC3E72C48FFF7E2FEBFE72B480D
:102CE000FFF7DEFEBBE71B4C072323721D48FFF7EF
:102CF00029FDC0F30B01E1602548FFF7D1FEE16833
:102D0000A1F25643112B1AD8DFE803F01119191953
:102D10001919191919190D191919191915091D4810
:102D2000FFF7BEFE9BE71C48FFF7BAFE97E71B487C
:102D3000FFF7B6FE93E71A48FFF7B2FE8FE7194890
:102D4000FFF7AEFE8BE700BFD015010800000020A2
:102D5000F0020020984100207714A02B7724A06B6C
:102D60007714C10B00580140002004E00010005C03
:102D7000E0150108FC1501085C1601082C16010875
:102D80003C1601084C1601086C1601088016010853
:102D9000A4160108D4160108001701082C17010811
:102DA0005817010884170108564C0123237256480E
:102DB000FFF7C8FCC0F30B01E1605448FFF770FE59
:102DC000E16840F25943994207D040F28943994261
:102DD00007D04F48FFF764FE41E74E48FFF760FE1B
:102DE0003DE74D48FFF75CFE39E7464C0F23237261
:102DF0004A48FFF7A7FCC0F30B01E1604848FFF722
:102E00004FFEE168B1F5906F0AD040F283439942DA
:102E10001BD0B1F58A6F22D04248FFF741FE1EE772
:102E20004148FFF73DFE4148FFF78CFCB0F18002BE
:102E300018BF0122334B5A613D493E4B802818BFD1
:102E400019463D48FFF72CFE09E73C48FFF728FEEE
:102E50002C4B00225A613A48FFF722FEFFE6394820
:102E6000FFF71EFE3848FFF76DFCB0F1800218BF77
:102E70000122244B5A612E492E4B802818BF194637
:102E80002D48FFF70DFEEAE61E4C0A2323722F4859
:102E9000FFF758FCC0F30B01E1602D48FFF700FE7F
:102EA000E16840F2694399420AD040F2794399427D
:102EB0000AD0B1F58D6F0BD12648FFF7F1FDCEE6B4
:102EC0002548FFF7EDFDCAE62448FFF7E9FDC6E611
:102ED0002348FFF7E5FDC2E62248FFF7E1FD094B75
:102EE00000221A72DA60BAE6FFF77CFB01461E4840
:102EF000FFF7D6FD1D48FFF7D3FDC820FFF762FBA3
:102F0000012010BD9841002000580140A817010879
:102F1000FC170108D8170108E81701080010005C29
:102F200020180108E8180108501801080CF8FF08DB
:102F3000C8150108C01501086418010874180108B3
:102F40008C180108A418010880E8F11F002004E093
:102F50000C1901083C19010864190108B01901088D
:102F6000D8190108FC1901082C1A01083C1A01089B
:102F700008B5084B1A7A0F2A08D848F2A203D340A2
:102F800013F0010F02D04FF0006008BD0248FFF7B8
:102F900087FDF8E7984100205C1A01082DE9F04F01
:102FA000ADF2945DA648FFF77BFD0DF58F61A54856
:102FB0000AF0E0FE002846D00DF58F61A2480AF025
:102FC000D9FE002840F09F8100230393FFF7D0FF34
:102FD00001909E48FFF764FD4CA99B480AF0CAFE89
:102FE000002840F0A5809A48FFF75AFD0DF5A3711F
:102FF0009848FFF755FD4C999748FFF751FDBDF8EC
:103000003421BDF83641510A02F01F03C2F34312C6
:1030100001F2BC719148FFF743FD04F01F035B0010
:10302000C4F34512E10A8E48FFF73AFD01228649B2
:1030300092A80AF035FC002800F0AD808948FFF71F
:103040002FFD012663E1002304934CA97D480AF07B
:1030500091FE90BB7E48FFF723FD0DF5A3717D48DF
:10306000FFF71EFD4C997C48FFF71AFDBDF834218F
:10307000BDF83641510A02F01F03C2F3431201F2B8
:10308000BC717648FFF70CFD04F01F035B00C4F32E
:103090004512E10A7248FFF703FD0122694992A82F
:1030A0000AF0FEFB70B9704B1A7A704B53F822008D
:1030B00001F0A0FA01F08CFA20E06D48FFF7F0FC77
:1030C000012624E16B48FFF7EBFC01261FE16A486B
:1030D000FFF7E6FC92A80AF038FE012617E192A855
:1030E0000AF033FE08B9002611E16448FFF7D8FC66
:1030F00001260CE10CA801F083FA88B104AB4FF46F
:1031000080720CA992A80AF0FBFC0028DFD1049978
:103110000029E4D0FF29EDD800230CAA5354E9E795
:103120005748FFF7BDFC92A80AF00FFE0126EEE01B
:103130004F48FFF7B5FC0126E9E05248FFF7B0FC25
:1031400092A80AF002FE0126E1E092A80AF0FDFD35
:103150000026DCE0019F0DF130084FF0FF3A4FF000
:10316000FF3BCDE904AB2546082C28BF08252A469D
:10317000414604A80CF0D3F8DDE90423384600F0FA
:103180007BFD064618BB0837A844641BE9D1039BA6
:10319000019A1A44019203AB4FF480720CA992A8D1
:1031A0000AF0AEFC0028C8D1039C002CCDD02E4BD9
:1031B0001B7A052BCED00F2B70D0012B14D03248A8
:1031C000FFF76EFC92A80AF0C0FD01269FE0394689
:1031D0002E48FFF765FC00F0E5FC2D48FFF760FC8A
:1031E00092A80AF0B2FD92E0019F0DF130084FF075
:1031F000FF3A4FF0FF3BCDE904AB2546082C28BF32
:1032000008252A46414604A80CF089F8DDE9042384
:10321000384601F083F8064620B90837A844641BF5
:10322000E9D1B4E739461B48FFF73AFC01F00CF846
:103230001948FFF735FC92A80AF087FD67E000BF48
:103240009C1A0108AC1A0108AC1B0108BC1B010840
:10325000CC1A0108E81A0108FC1A0108181B010819
:10326000401B0108D01B010898410020B023010831
:10327000BC1A0108681B0108781B0108881B01089B
:10328000981B0108F81B0108401D0108201C0108BB
:103290005C1C0108801C0108BC1C01081E4BDB687B
:1032A000B3F5906F14BF4FF020084FF01008019F46
:1032B0000DF130094FF0200B4FF0FF0A5A465146EE
:1032C00004A80BF0ADFF4546A04528BF25462A4679
:1032D000494604A80CF023F8424604A9384600F0F9
:1032E000B3FE064620B94744A944641BE6D14EE725
:1032F00039460A48FFF7D4FB0948FFF7D1FB92A8EB
:103300000AF023FD03E00748FFF7CAFB0126304619
:103310000DF2945DBDE8F08F98410020E01C01089B
:103320001C1D0108641D0108002A4AD02DE9F04F38
:1033300091B006460C461546D71CBF10ADF10408E7
:10334000C2464FF0000910ABC3F1440B83440BEBB2
:103350000A00FFF7F7F94AF8040F09F101094F4590
:10336000F5DC08A88446002258F8043F8CF80030A9
:10337000190A8CF80110190C8CF802101B0E8CF82D
:10338000033001320CF1040C9742EDDC214600239E
:103390000F46013110F8014B3A78A24204D10133B3
:1033A0009D42F5D1012009E099190748FFF778FB04
:1033B0003A7821460548FFF773FB002011B0BDE8BD
:1033C000F08F0120704700BF7C1D0108A41D01087B
:1033D0002DE9F041ADF5AD6D6E48FFF761FB0DF5E0
:1033E0008A616D480AF0C6FC48B30DF58A616B48E6
:1033F0000AF0C0FC002840F0C48000230093FFF7CF
:10340000B7FD074642A965480AF0B4FC002864D11C
:103410000122624988A80AF043FA002862D14FF0DD
:1034200010086B464FF4807202A988A80AF068FB66
:1034300000285CD1009D002D61D000247FE0002396
:10344000019342A954480AF095FC58B90122524907
:1034500088A80AF025FA50B9514801F0CBF801F0DC
:10346000B7F820E04F48FFF71BFB01208DE04E48E6
:10347000FFF716FB012088E04C48FFF711FB88A8F6
:103480000AF063FC012080E088A80AF05EFC08B91D
:1034900000207AE04648FFF703FB012075E002A810
:1034A00001F0AEF888B101AB4FF4807202A988A890
:1034B0000AF026FB0028DFD101990029E4D0FF297A
:1034C000EDD8002302AA5354E9E73A48FFF7E8FA97
:1034D00088A80AF03AFC012057E03248FFF7E0FAEA
:1034E000012052E03048FFF7DBFA01204DE02F4881
:1034F000FFF7D6FA88A80AF028FC012045E088A842
:103500000AF023FC08B900203FE02948FFF7C8FA79
:1035100001203AE02848FFF7C3FA88A80AF015FC12
:10352000012032E0464606F0FC0202AB1919E01910
:10353000FFF7FAFED8B13444009DA5421FD92A1BDB
:10354000102AEFD832F00306EDD14FF0FF3301938C
:1035500002AB191901A80BF0E2FE04220DEB0201E7
:10356000E019FFF7E1FE0028D4D02C46E4E712482A
:10357000FFF796FA88A80AF0E8FB012005E02F443F
:103580004FE70E48FFF78CFA01200DF5AD6DBDE851
:10359000F08100BFD01D0108AC1A0108AC1B010866
:1035A00029330008BC1A0108681B0108781B0108B0
:1035B000881B0108981B0108E01D0108641D010813
:1035C00000B5C7B04348FFF76BFA694642480AF0B6
:1035D000D1FB002876D14148FFF762FA404B1B7AB5
:1035E000013B0E2B6AD8DFE803F04469696908697A
:1035F0005E6969696969696922003A48FFF750FAAA
:1036000000F0B2FA00F07AFBBB2000F0C5FB00F03E
:10361000B5FBFFF78FFA00F05DFB00F0C3FA32480C
:10362000FFF790F8C1B23148FFF73AFA4DE02D4864
:10363000FFF736FA012000F0A1FC022000F09EFC0A
:1036400000F058FD4FF43B4000F0C0FD00F086FD57
:1036500000F070FD022000F0D5FC012000F0D2FC4B
:103660002348FFF76FF800F47F412048FFF718FA6E
:103670002BE01C48FFF714FA00F0C8FD00F090FEA4
:10368000BB2000F0DBFE00F0CBFEFFF753FA00F0AA
:1036900073FE00F0D9FD1748FFF754F8C1B2134884
:1036A000FFF7FEF911E00F48FFF7FAF90E48FFF7B0
:1036B00049F8C1B20D48FFF7F3F906E00E48FFF7ED
:1036C000EFF902E00D48FFF7EBF9002047B05DF895
:1036D00004FB00BFF81D0108181E0108241E010884
:1036E00098410020441E01080078FF1F941E010825
:1036F0001C20005220200240AC1E0108E01E0108E0
:1037000000B9704708B50548FFF7CAF9032001F072
:1037100081F9032000F01AFF08BD00BFD022010884
:1037200038B500F0B7FE00F0EBFE012800D038BD40
:10373000B04B1B7853B3012001F06CF9012000F06D
:1037400005FF01F0C9FE0546FFF7F4F90446AA4952
:10375000FFF7D6FF002CEAD1A848FFF7A1F9A84B44
:103760001B7A013B0E2B00F2E580DFE813F0B2007C
:10377000E300E300E3001600E300EB00E300E300F6
:10378000E300E300E300E300E30076009D4807F078
:10379000C1FF984B01221A70CDE79B48FEF7D2FF7C
:1037A000C4B221469948FFF77BF9BB2C34D0AA2C30
:1037B0004FD19748FFF774F996490020FFF7A0FF13
:1037C000FFF7D6FB0446FEF7BDFFB0F1FF3F06D181
:1037D000201DFEF7B7FFB0F1FF3F00F0B8808E4824
:1037E000FFF75EF98D48FFF75BF9854B1B7A013BCC
:1037F0000E2B00F22D81DFE813F0D1002B012B01FD
:103800002B01C3002B01C9002B012B012B012B0124
:103810002B012B012B01D8008148FFF741F900F063
:10382000A3F900F06BFAAA2000F0B6FA7D48FFF782
:1038300037F900F0A3FAFFF77DF900F04BFA00F03A
:10384000B1F97148FEF77EFFC1B27748FFF728F95A
:10385000B2E77648FFF724F96FE07548FEF772FF8C
:1038600000F47F4421466948FFF71AF9B4F53B4F4D
:1038700006D0B4F52A4F28D16548FFF711F99BE728
:103880006748FFF70DF9012000F078FB022000F0F7
:1038900075FB00F02FFC4FF42A4000F097FC6148C4
:1038A000FFF7FEF800F05AFC00F044FC012000F0A5
:1038B000A9FB022000F0A6FB5D48FEF743FF00F4E1
:1038C0007F415948FFF7ECF876E75848FFF7E8F8EA
:1038D00033E05848FEF736FFC4B221464B48FFF7A5
:1038E000DFF8BB2C05D0AA2C20D14948FFF7D8F827
:1038F00062E74B48FFF7D4F800F088FC00F050FD79
:10390000AA2000F09BFD4748FFF7CAF800F088FDA9
:10391000FFF710F900F030FD00F096FC4548FEF787
:1039200011FFC1B24048FFF7BBF845E73F48FFF73A
:10393000B7F802E04048FFF7B3F836490120FFF737
:10394000DFFEF4E633490020FFF7DAFE38E73B48B4
:10395000FFF7A6F83A48FFF7A3F83A48FFF7A0F8B0
:10396000274B1B7A013B0E2B00F2A080DFE803F00F
:103970008C9E9E9E789E7A9E9E9E9E9E9E9E8F0070
:1039800000F0F2F800F05EF900F00CF92E48FFF7B5
:1039900087F82E490020FFF7B3FEDEE700F036FC83
:1039A00000F0A2FC00F050FCF0E7154B5B69012B26
:1039B00014D1012000F0E2FA022000F0DFFA012128
:1039C000302000F05FFA0221302000F05BFA012085
:1039D00000F018FB022000F015FBD7E7012000F0F3
:1039E000CDFA0121302000F04DFA012000F00AFB51
:1039F000CCE700BF95410020201F0108381F0108B7
:103A000098410020F44700200078FF1F6C1F010838
:103A1000F01F010874200108D8200108F8200108CF
:103A20008C1F0108D81F0108941E010814200108EA
:103A30001C20005220200240402001089420010850
:103A4000B02001086821010850210108382101082F
:103A50003A48FFF725F83A490120FFF751FE66E69C
:103A600000F082F8FFF79AFA04463648FFF718F894
:103A7000354B1B7A052B1DD00F2B50D0012B4BD073
:103A80003248FFF70DF817E000F0C0FBEAE72E4BD5
:103A90005B69012B03D0012000F070FAE2E70120FE
:103AA00000F06CFA022000F069FADBE72748FEF725
:103AB000F7FFD7E700F076F825492046FFF720FE0C
:103AC000002C7FF434AEFFF783FC04462149FFF756
:103AD00017FE002C7FF42BAEFFF772FD04461E4943
:103AE000FFF70EFE002C7FF422AE1C48FEF7D8FF35
:103AF0001B48FEF7D5FFFEF743FEFEF70FFE01F071
:103B0000EBFC411B1748FEF7CBFF022000F082FFC1
:103B1000022000F01BFD0AE600F096FBCCE70A4B02
:103B20005B69012B03D0012000F06CFAC4E701208F
:103B300000F068FA022000F065FABDE70C210108E8
:103B400038210108BC21010898410020A821010862
:103B5000F82101081022010824220108442201084A
:103B6000602201087C22010810B50A48FEF7EAFD30
:103B7000002801DB002010BD074C08492046FEF755
:103B8000F3FD07492046FEF7EFFD0248FEF7DAFD98
:103B9000C00FF0E7142002400820024023016745CF
:103BA000AB89EFCD10B5074C2046FEF7CBFD40F0BA
:103BB00000412046FEF7D8FD2046FEF7C3FDC04376
:103BC000C00F10BD1420024070B5064601F084FC01
:103BD00084191B48FEF7B6FD10F4803F0AD0184D3B
:103BE00001F07AFCA04224D22846FEF7ABFD10F487
:103BF000803FF5D1124D2846FEF7A4FD4CF2FA3174
:103C000001402846FEF7B0FD01F066FC0644284658
:103C1000FEF798FD10F4802F0DD001F05DFCB0424E
:103C20000BD22846FEF78EFD10F4802FF5D1002030
:103C300000E0012070BD0020FCE70120FAE700BF92
:103C40001020024010B54FF47A70FFF7BDFF00B1AD
:103C500010BD084C2046FEF775FD40F4803141F060
:103C600004012046FEF780FD4FF47A70FFF7ACFFA9
:103C7000EEE700BF14200240F8B5044616461D4684
:103C80004FF47A70FFF7A0FF78B14FF47A70FFF726
:103C90009BFF04460E4D2846FEF754FD20F001011F
:103CA0002846FEF761FD2046F8BD094F3846FEF76D
:103CB00049FD40F001013846FEF756FD31462046E9
:103CC000FEF752FD2946201DFEF74EFDDDE700BF41
:103CD0001420024010B5084C2046FEF733FD40F09A
:103CE00080412046FEF740FD2046FEF72BFD80F088
:103CF0008040C0F3807010BD1420024010B50B4806
:103D0000FEF720FD10F0804F01D1012010BD084CBE
:103D100008492046FEF728FD07492046FEF724FD06
:103D20000248FEF70FFDC0F38070EFE71420024059
:103D30000C2002403B2A19087F6E5D4C08B50348F1
:103D4000FEF700FD03460248184008BD202002404F
:103D500000FFEF3FF8B505460C461646064F3846BD
:103D6000FEF7F0FC45F0FF0520EA0501344321434E
:103D70003846FEF7F9FCF8BD2020024010B5054C8E
:103D80002046FEF7DFFC40F000612046FEF7ECFC29
:103D900010BD00BF1420024038B50446FFF7CEFF27
:103DA00001462246FFF7D6FF4FF47A70FFF70CFF6B
:103DB000044608B1204638BD0B4D2846FEF7C2FC2C
:103DC00040F400312846FEF7CFFC4FF47A70FFF73D
:103DD000FBFE04462846FEF7B5FC20F400312846D9
:103DE000FEF7C2FCE6E700BF142002402DE9F047D1
:103DF00005461E4A1E4B012914BF914699460129CA
:103E00001C4F08BF04271C4E1C4B012908BF1E462F
:103E100001291B4B14BF9A464FF4803A01F05CFB1A
:103E2000804601E027420ED03046FEF78BFC044668
:103E3000B5F1FF3FF6D001F04FFBA0EB0800A84220
:103E4000F0D9012006E019EA040105D11AEA040FAD
:103E500006D10020BDE8F0873046FEF785FCF5E787
:103E600051463046FEF780FC0020F3E70000EE9755
:103E70000000EE17040000801021005210200052B4
:103E80000000018070B5054601F00303032B11D03B
:103E90000C4611F0010F39D114F0020F50D101215D
:103EA0004CF25030FFF7A2FF02214CF25030FFF7E6
:103EB0009DFF70BD2F4E3046FEF744FC20F03001D0
:103EC0003046FEF751FC2C4C2046FEF73BFC20F020
:103ED00030012046FEF748FC3046FEF733FC40EA4E
:103EE00005013046FEF740FC2046FEF72BFC40EA79
:103EF00005012046FEF738FCF43C2046FEF722FC84
:103F000040F010012046FEF72FFCC8E7194E30465E
:103F1000FEF718FC20F030013046FEF725FC304655
:103F2000FEF710FC40EA05013046FEF71DFC304666
:103F3000FEF708FC40F088013046FEF715FCABE7C1
:103F40000D4C2046FEF7FEFB20F030012046FEF728
:103F50000BFC2046FEF7F6FB40EA05012046FEF783
:103F600003FC2046FEF7EEFB40F088012046FEF7FA
:103F7000FBFB94E70C2000520C21005238B504469C
:103F800010F0010F04D114F0020F18D1002038BD39
:103F90001648FEF7D7FB10F0010FF4D0144D154969
:103FA0002846FEF7E1FB14492846FEF7DDFB0F48E3
:103FB000FEF7C8FB10F0010FE5D00120E7E70F483E
:103FC000FEF7C0FB10F0010F01D10020DFE70C4C21
:103FD00008492046FEF7C8FB07492046FEF7C4FB08
:103FE0000648FEF7AFFB00F00100D0E70C200052BE
:103FF0000420005223016745AB89EFCD0C2100520C
:104000000421005238B5044610F0010F04D114F019
:10401000020F0BD1002038BD094D2846FEF792FB58
:1040200040F001012846FEF79FFBF0E7054C2046D3
:10403000FEF788FB40F001012046FEF795FBE9E71B
:104040000C2000520C2100522DE9F04F83B0814624
:104050008846924600F17843B3F5801F16D2234C70
:104060002046FEF76FFB40F002010123009301940C
:104070000198FEF779FBBAF1000F29D008F120056D
:1040800047466FF01F0BABEB080B16E0184C2046B1
:10409000FEF758FB40F00201022300930194E7E78A
:1040A000203700994CF25030FFF7A0FE0346C8B904
:1040B00020350BEB05039A450AD9A9EB08063C46C7
:1040C000A01954F8041BFEF74FFBAC42F8D1E7E708
:1040D000019C2046FEF736FB20F002012046FEF749
:1040E00043FB0023184603B0BDE8F08F0C200052BC
:1040F0000C21005210B50B48FEF724FB10F0010F05
:1041000001D1002010BD084C08492046FEF72CFBC9
:1041100007492046FEF728FB0248FEF713FB00F094
:104120000100EFE718200052082000523B2A19082E
:104130007F6E5D4C10B5084C2046FEF703FB40F047
:1041400001012046FEF710FB2046FEF7FBFAC043B4
:1041500000F0010010BD00BF1820005270B5184CCF
:104160002046FEF7EFFA40F002012046FEF7FCFA87
:1041700001F0B2F904461348FEF7E4FA10F0010F1B
:104180000DD04CF250350F4E01F0A6F9001BA8429D
:1041900014D83046FEF7D6FA10F0010FF4D10948D2
:1041A000FEF7D0FA10F0804F01D1002007E04FF069
:1041B00080410548FEF7D8FA012000E0012070BDDB
:1041C000182000521C2000522420005270B50446D2
:1041D00001214CF25030FFF709FE054608B1284690
:1041E00070BD02214CF25030FFF700FE054600285A
:1041F000F5D1054E3046FEF7A5FA20F47F41214364
:104200003046FEF7B1FAEAE72020005210B50A481E
:10421000FEF798FA002801DB002010BD074C084982
:104220002046FEF7A1FA07492046FEF79DFA02480C
:10423000FEF788FAC00FF0E7142002400820024081
:1042400023016745AB89EFCD10B5074C2046FEF73B
:1042500079FA40F000412046FEF786FA2046FEF744
:1042600071FAC043C00F10BD1420024070B506465D
:1042700001F032F984191B48FEF764FA10F4803F0C
:104280000AD0184D01F028F9A04224D22846FEF7A2
:1042900059FA10F4803FF5D1124D2846FEF752FA34
:1042A00048F2FA3101402846FEF75EFA01F014F9AF
:1042B00006442846FEF746FA10F4802F0DD001F090
:1042C0000BF9B0420BD22846FEF73CFA10F4802FCF
:1042D000F5D1002000E0012070BD0020FCE70120A6
:1042E000FAE700BF1020024010B54FF47A70FFF7D4
:1042F000BDFF00B110BD084C2046FEF723FA40F484
:10430000803141F004012046FEF72EFA4FF47A7016
:10431000FFF7ACFFEEE700BF14200240F8B50446FB
:1043200016461D464FF47A70FFF7A0FF78B14FF4A0
:104330007A70FFF79BFF04460E4D2846FEF702FAFF
:1043400020F001012846FEF70FFA2046F8BD094F7C
:104350003846FEF7F7F940F001013846FEF704FA57
:1043600031462046FEF700FA2946201DFEF7FCF9EB
:10437000DDE700BF1420024010B5084C2046FEF7D0
:10438000E1F940F080412046FEF7EEF92046FEF7C5
:10439000D9F980F08040C0F3807010BD1420024035
:1043A00010B50B48FEF7CEF910F0804F01D1012077
:1043B00010BD084C08492046FEF7D6F907492046AB
:1043C000FEF7D2F90248FEF7BDF9C0F38070EFE7BF
:1043D000142002400C2002403B2A19087F6E5D4CDD
:1043E00008B50348FEF7AEF903460248184008BD79
:1043F0002020024000FF4F3FF8B505460C46164608
:10440000064F3846FEF79EF945F0FF0520EA050104
:10441000344321433846FEF7A7F9F8BD2020024077
:1044200010B5054C2046FEF78DF940F0006120469E
:10443000FEF79AF910BD00BF1420024038B50446BB
:10444000FFF7CEFF01462246FFF7D6FF4FF47A7002
:10445000FFF70CFF044608B1204638BD0B4D284637
:10446000FEF770F940F400312846FEF77DF94FF46D
:104470007A70FFF7FBFE04462846FEF763F920F446
:1044800000312846FEF770F9E6E700BF142002402D
:104490007047000008B54FF40041134801F074FC68
:1044A000124B1870124B1B78834217D101F014F88D
:1044B000104B1B68C01A14280BD90C4B1B780E4AE2
:1044C00012789A4205D00C4A137013B90B4B012293
:1044D0001A70064B1A78064B1A7008BD00F0FCFFE4
:1044E000044B1860E2E700BF00000240B541002025
:1044F00004000020B841002005000020B441002045
:10450000034B187800B9704700221A700120FAE7AF
:10451000B441002008B568B10A4BB3FBF0F3013B8E
:1045200009480268D362C3605B08D363082104F0C2
:10453000C3FA08BD044803680022DA63082104F0C6
:1045400035FBF6E740420F006C430020F8B5042825
:104550000ED8DFE800F0030E182338000A20FFF71A
:10456000D9FF4FF4FA7000F0BDFF0020FFF7D2FF33
:10457000F8BD0A20FFF7CEFF962000F0B3FF002021
:10458000FFF7C8FFF4E70A20FFF7C4FF4FF4967067
:1045900000F0A8FF0020FFF7BDFFE9E705240A2788
:1045A000962500263846FFF7B5FF284600F09AFF0B
:1045B0003046FFF7AFFF284600F094FF631E13F06C
:1045C000FF04EFD1D4E70020FFF7A4FFD0E70000FD
:1045D0000023044A1370044A1380044A1380044AD7
:1045E00013707047CF420020CC420020CA42002006
:1045F000C8420020014B1860704700BFBC4100203A
:10460000002900F009812DE9F843441E0844451EA5
:104610008C4F8D4EDFF8488248E0591EC9B20A29F6
:1046200000F2FE80A2F13000C0B209280DD9A2F13B
:104630004101C9B205291CD9A2F16101C9B21929E8
:1046400000F2F180A2F15700C0B23178A9B9DFF8C9
:1046500024C28CF8000081F0010131700B2B00F2B4
:10466000E480DFE803F02E18184C4C4C4C555C6C81
:104670008488A2F13700C0B2E7E7DFF8E4E1DFF8B1
:10468000F4C19CF800C040EA0C1C9EF80090CC4499
:104690008EF800C0DFE76D490A7840EA02120A701E
:1046A0000133684A1370AC4200F0B48014F8012F53
:1046B000002A00F0B3803B78002BAED188F80030A0
:1046C00033700D2AEFD00A2AEDD03A2A40F0AF809D
:1046D0004FF000095D4B83F800905D4B83F800902C
:1046E0005C4BA3F80090FF2211465B480AF098FD4E
:1046F0005A4BA3F80090534B01221A70D3E7554947
:104700000A8840EA02120A8001334E4A1370CAE74F
:10471000002840F08E804B4B08221A70C3E7052812
:1047200000F289804A4B1870484B1B781BB9454BE7
:104730000A221A70B7E7434B09221A70B3E74749B8
:104740000B88C3F3470CDFF810E11EF80C2040EA99
:1047500002120EF80C2001339BB20B803B4A1278F8
:10476000B2EB530F9FD8374B0A221A709BE7354B99
:104770000B221A7097E7394B1A88344B1B78B2EB2F
:10478000430F5AD1364B1B78002B58D1304B1B7836
:10479000022B19D0042B22D0002B2ED1314B1B68B9
:1047A00073B13149097809B330490988294800882B
:1047B00000EB0110C2F3470227499847002830D088
:1047C000204B00221A706EE7234B1A785B7843EA7D
:1047D0000223012225490B80234B1A70F0E71E4B60
:1047E0001A785B7843EA02230022F3E71F4909881D
:1047F0001848008840EA0140DCE7012BE0D11C4B5F
:104800001B7A0F2BDCD1174B1B6800221146104678
:104810009847D5E7012004E001207047012000E01F
:104820000020BDE8F8830020FBE70020F9E7002026
:10483000F7E70020F5E70020F3E70020F1E700208C
:10484000EFE700BFCF420020C0410020CE42002051
:10485000C7420020CC420020C8410020C4410020B3
:10486000C1410020BC410020C8420020CA420020B3
:1048700098410020C241002008B5002201F08AFAC8
:1048800008BD08B5012201F085FA08BD38B50368F6
:10489000B3F5C87F19D30C46002303600B78032BB4
:1048A0003ED8DFE803F00213212F1F4D04212846D4
:1048B000FFF7E2FF08212846FFF7E3FF1021284613
:1048C000FFF7DFFF23780133237038BD164D042135
:1048D0002846FFF7D6FF08212846FFF7CDFF102115
:1048E0002846FFF7CEFFEDE70F4D04212846FFF7DE
:1048F000C8FF08212846FFF7C4FF10212846FFF70C
:10490000BBFFDFE7084D04212846FFF7B5FF08216C
:104910002846FFF7B6FF10212846FFF7B2FFD1E780
:1049200000230B70D1E700BF0010024010B50D4B03
:10493000A3FB00235B09642202FB130048B10A4C6D
:1049400004212046FFF79DFF10212046FFF799FF25
:1049500010BD082100F1804000F5043001F020FA7C
:10496000EDE700BF1F85EB510010024010B5074C6A
:1049700004212046FFF780FF08212046FFF781FF32
:1049800010212046FFF77DFF10BD00BF0010024040
:1049900010B5074C04212046FFF773FF082120467D
:1049A000FFF76FFF10212046FFF766FF10BD00BF25
:1049B0000010024010B5134B186801301860124BFC
:1049C0001B78032B17D8DFE803F00214171A0F4BDC
:1049D0001B7883B90E4C21460A48FFF757FF23780E
:1049E000032B08D9084B02221A70084B01221A70B7
:1049F00001E0FFF79BFF10BDFFF7B8FFFBE7FFF7F4
:104A0000C7FFF8E7D4420020D8420020D14200205E
:104A1000D0420020014B1870704700BFD8420020E0
:104A200008B502480AF090FA72B6FEE7A42201081F
:104A300000B595B03022002108A80AF0F1FB002350
:104A4000039304930593069307930193214A116CF2
:104A500041F080511164126C02F080520192019A6F
:104A600002931D4A136823F4404343F480431360C8
:104A7000136803F440430293029B012308934FF40D
:104A80008033099302230E934FF480020F92042285
:104A900010927822119212930523139308A801F023
:104AA000ADFF98B90F2303930223049300230593CA
:104AB0004FF4A05306934FF480530793032103A8A8
:104AC00002F006FA20B915B05DF804FBFFF7A8FF65
:104AD000FFF7A6FF003802400070004080B59CB090
:104AE00000F0D4FCFFF7A4FF00241494159416944E
:104AF000179418940194AA4D2B6B43F010032B6369
:104B00002B6B03F010030193019B02942B6B43F07A
:104B100080032B632B6B03F080030293029B0394AF
:104B20002B6B43F001032B632B6B03F00103039307
:104B3000039B04942B6B43F004032B632B6B03F058
:104B400004030493049B05942B6B43F008032B632D
:104B50002B6B03F008030593059B06942B6B43F026
:104B600002032B632B6B03F002030693069BDFF813
:104B7000549201221C21484601F00CF9DFF84882CA
:104B800022464FF48871404601F004F9854F2246D1
:104B90004FF48871384601F0FDF801224021384673
:104BA00001F0F8F81C231493012615961694179417
:104BB00014A9484600F028FF4FF48879CDF85090AA
:104BC00015961694179414A9404600F01DFF4FF453
:104BD000004314931594169414A9404600F014FF52
:104BE000CDF85090159616964FF00308CDF85C80DE
:104BF00014A9384600F008FF4023149315960223A9
:104C00001693CDF85C8014A9384600F0FDFE0094A0
:104C10002B6B43F480032B632B6B03F48003009313
:104C2000009B224606213B2000F082FC3B2000F046
:104C3000B5FC22460621452000F07AFC452000F014
:104C4000ADFC594B594A1A605C609C60DC605C6149
:104C50009C611C6109940A940B940C940794089429
:104C60000D940E940F941094119412941394202286
:104C7000214614A80AF0D4FA4D484E4B036077231E
:104C8000436084604FF47A73C3600461446184615B
:104C900003F048FD002840F0D5804FF4805309937D
:104CA00009A9434803F043FE002840F0CD80404866
:104CB00003F064FD002840F0C980002307930893A7
:104CC00007A93B4803F0B6FF002840F0C1806023ED
:104CD0000D9300230E930F9310931193129313933C
:104CE00008220DA9324803F0A7FD002840F0B28049
:104CF0000023149315931693179318934FF40052AF
:104D000019921B9314A92A4803F0D8FF002840F0F9
:104D1000A380274800F048FA0023149315931693B4
:104D200017930D930E9324484FF0804202603B226C
:104D3000426083604FF6FF72C2600361836103F0DB
:104D4000F1FC002840F08A804FF48053149314A99A
:104D5000194803F0ECFD002840F0828000230D93F9
:104D60000E930DA9144803F065FF00287AD113486B
:104D7000134B03604FF48273436000238360C3606E
:104D8000036143614FF4007282611022C2610362C9
:104D9000436283620A23C36203F042FA16E000BF53
:104DA0000038024000040240CC440020002C0140A6
:104DB0006C4300200000014024430020B443002045
:104DC00000300140001002400000024000284BD19A
:104DD0002848294B03604FF461234360002383601C
:104DE000C3600361082242618361C36104F085F8F6
:104DF00000283BD105F05EFA09F07AF81F48204BF5
:104E00000360002343607F22826041F6C262C26079
:104E100003614361836102F0C7FA48BB194803F09C
:104E2000E5FA0020FFF7F6FD0020FFF78FFB16499B
:104E30001648FDF735FE16491648FDF731FEFEF718
:104E40006FFCFCE7FFF7ECFDFFF7EAFDFFF7E8FD7D
:104E5000FFF7E6FDFFF7E4FDFFF7E2FDFFF7E0FDFA
:104E6000FFF7DEFDFFF7DCFDFFF7DAFDFFF7D8FD0A
:104E7000FFF7D6FDDC420020001001405045002025
:104E80000028004024430020B4220108BC2201086D
:104E9000D4220108D022010882B0002100910B4BDE
:104EA0005A6C42F480425A645A6C02F48042009276
:104EB000009A01911A6C42F080521A641B6C03F044
:104EC00080530193019B02B0704700BF003802403D
:104ED00010B58CB004463022002168460AF0A0F9D3
:104EE00022680A4B9A4201D00CB010BD20230093D7
:104EF000074B0A93684602F0C3F820B9054B01221C
:104F0000C3F83C2EF0E7FFF78BFDF7E700280040E1
:104F100000030800000047422DE9F04F89B000234C
:104F2000039304930593069307930268594B9A429F
:104F300002D009B0BDE8F08F04460025009503F5C6
:104F400086335A6C42F400625A645A6C02F400626E
:104F50000092009A01951A6B42F004021A631A6BD0
:104F600002F004020192019A02951A6B42F00802C3
:104F70001A631B6B03F008030293029B4FF47063E8
:104F800003934FF00208CDF810804FF0010BCDF8DD
:104F900014B0032606960C270797DFF810910DEB47
:104FA0000701484600F030FD4FF4805ACDF80CA0C0
:104FB000CDF810800595069607970DEB070148463A
:104FC00000F022FD4FF00409CDF80C90CDF81080D0
:104FD000CDF814B0069607970DEB07012E4800F0A8
:104FE00013FD2E482E4B03604FF000634360856035
:104FF000C5604FF480630361C0F814A04FF4804390
:1050000083612023C3610562C0F8249086624FF457
:105010000003C3624FF40013036300F011FB002888
:1050200031D11E4B23649C631E481F4B03604FF01D
:1050300000634360402383600023C3604FF48062B9
:1050400002614FF4805242614FF48042826120221B
:10505000C261036204234362032383624FF40003AB
:10506000C3624FF40013036300F0EAFA70B90D4B0A
:10507000E3639C6300220521312000F059FA3120BE
:1050800000F08CFA55E7FFF7CBFCCAE7FFF7C8FC46
:10509000EDE700BF002C0140000C02406C440020F2
:1050A000586402400C440020A06402400008024002
:1050B000F0B589B0002303930493059306930793F7
:1050C00002681A4B9A4201D009B0F0BD002101914B
:1050D00003F584335A6C42F480525A645A6C02F4D9
:1050E00080520192019A02911A6B42F001021A63F6
:1050F0001B6B03F001030293029BA023039302277F
:1051000004970326069605250795094C03A9204612
:1051100000F07AFC4023039304970123059306963D
:10512000079503A9204600F06FFCCDE70030014051
:105130000000024000B583B00368194A934205D0CD
:10514000B3F1804F16D003B05DF804FB002100914D
:10515000144B5A6C42F001025A645B6C03F0010379
:105160000093009B0A46192000F0E2F9192000F094
:1051700015FAE8E70021019103F50E331A6C42F0AD
:1051800001021A641B6C03F001030193019B0A46A0
:105190001C2000F0CDF91C2000F000FAD3E700BF7E
:1051A000000001400038024000B587B000230193A1
:1051B00002930393049305930268104B9A4202D022
:1051C00007B05DF804FB002300930D4B1A6B42F00F
:1051D00010021A631B6B03F010030093009B4FF443
:1051E00000530193022302930323049301230593A5
:1051F00001A9044800F008FCE2E700BF00000140FC
:105200000038024000100240F0B589B0002303933B
:105210000493059306930793026803F1804303F513
:1052200088339A4201D009B0F0BD0024009403F500
:1052300094335A6C42F010025A645A6C02F0100215
:105240000092009A01941A6B42F001021A631A6BE1
:1052500002F001020192019A02941A6B42F00202DA
:105260001A631B6B03F002030293029B4FF400735B
:10527000039302270497032606960725079503A99B
:10528000064800F0C1FB802303930497059406961B
:10529000079503A9024800F0B7FBC4E700000240ED
:1052A00000040240FEE7FEE7FEE7FEE7FEE7704788
:1052B0007047704708B500F003F9FFF77BFBFFF775
:1052C000E7F808BD08B5024803F0D4F808BD00BFF0
:1052D0006C43002008B5024803F0CCF808BD00BFBD
:1052E0002443002008B5024802F048FE08BD00BF74
:1052F000CC44002008B5024800F096FA08BD00BF73
:105300006C44002008B5024800F08EFF08BD00BFC5
:10531000544F002008B5024800F086FA08BD00BFCF
:105320000C4400200120704708B509F0CBFF16237C
:1053300003604FF0FF3008BD08B509F0C3FF162326
:105340000360FEE770B5161E07DD0C468D19AFF33E
:10535000008004F8010BA542F9D1304670BD70B54C
:10536000161E07DD0C468D1914F8010BFDF788FB9E
:10537000A542F9D1304670BD4FF0FF3070474FF471
:1053800000534B6000207047012070470020704799
:1053900008B503460C4A126852B10B4A1068034420
:1053A0000A4A0B49521A934206D8074A136008BDAD
:1053B000054A08491160F0E709F084FF0C230360F7
:1053C0004FF0FF30F3E700BF7045002000000320DE
:1053D0000020000088550020034AD2F8883043F4AA
:1053E0007003C2F88830704700ED00E0DFF834D079
:1053F000FFF7F2FF0C480D490D4A002302E0D45894
:10540000C4500433C4188C42F9D30A4A0A4C00230E
:1054100001E013600432A242FBD309F059FFFFF709
:105420005DFB70470000032000000020D002002038
:10543000DC2C0108D002002084550020FEE700008B
:1054400010B504460E4B1A784FF47A73B3FBF2F39F
:105450000C4A1068B0FBF3F000F0C0F868B90F2CEC
:1054600001D901200AE0002221464FF0FF3000F070
:105470005FF8054B1C60002000E0012010BD00BF5C
:105480000C000020080000201000002008B50B4B85
:105490001A6842F400721A601A6842F480621A6054
:1054A0001A6842F480721A60032000F02FF800207E
:1054B000FFF7C6FFFFF7F0FC002008BD003C0240EC
:1054C000034A1168034B1B780B441360704700BFFD
:1054D000744500200C000020014B1868704700BF85
:1054E0007445002038B50446FFF7F6FF0546B4F1D1
:1054F000FF3F02D0044B1B781C44FFF7EDFF401B1D
:10550000A042FAD338BD00BF0C0000200749CA688A
:10551000030203F4E06322F4E0621204120C13436A
:1055200043F0BF6343F40033CB60704700ED00E00D
:1055300000B5184BDB68C3F30223C3F1070CBCF1C1
:10554000040F28BF4FF0040C03F1040EBEF1060F48
:105550008CBF033B00234FF0FF3E0EFA0CFC21EA08
:105560000C0199400EFA03FE22EA0E0211430028B4
:1055700009DB0901C9B200F1604000F5614080F823
:1055800000135DF804FB00F00F000901C9B2024BE3
:105590001954F6E700ED00E014ED00E0002807DB09
:1055A000410900F01F0001238340024A42F82130E4
:1055B000704700BF00E100E000280CDB430900F069
:1055C0001F00012282402033034941F82320BFF30A
:1055D0004F8FBFF36F8F704700E100E00138B0F1EB
:1055E000807F0BD24FF0E0235861054AF02182F80A
:1055F00023100020986107221A617047012070472C
:1056000000ED00E010B402460368D8B210380A4931
:10561000A1FB00410909094C615CD1655F2887BF86
:105620006FF30903181D23F47F7020F003009065C9
:105630005DF8044B704700BFABAAAAAA0824010872
:1056400038B50446FFF748FF002C00F08C80054673
:10565000022384F83530002384F83430226813683C
:1056600023F00103136023681A6812F0010F0AD0B7
:10567000FFF732FF431B052BF5D920236365032079
:1056800084F8350038BD1A68384911406268A0684E
:105690000243E06802432069024360690243A06953
:1056A0000243E0690243206A02430A43616A042913
:1056B00021D01A6021684A6922F00702636A1A43FE
:1056C000042B0AD1A06A0243E36A33B1A5693DBB4A
:1056D00001281FD030F0020012D04A612046FFF7A7
:1056E00091FFE26D3F2393408360002060650123BA
:1056F00084F83530C6E7E16A206B01430A43D8E7F6
:10570000C3F30063002BE8D040236365012084F8D5
:105710003500B7E7B3F1C07F14BF00230123F1E7E1
:10572000B5F5005F08D00228EED90328D5D1C3F320
:105730000063002BD1D0E7E70328CED801A555F8A8
:1057400020F000BF09570008555700080957000806
:105750005B570008C3F30063EBE7B3F1C07F14BFEE
:1057600000230123E5E701208CE700BF3F8010F014
:1057700070B4846D90F834C0BCF1010F3FD04FF08D
:10578000010C80F834C090F835C05FFA8CFCBCF195
:10579000010F05D0002380F83430022070BC704720
:1057A000022580F83550002545650668356825F4E2
:1057B0008025356005686B608368402B1AD00368CC
:1057C00099600368DA60C26D3F239340A36002686A
:1057D000136843F016031360036C23B10268136867
:1057E00043F0080313600268136843F00103136079
:1057F0000020D3E703689A600368D960E3E70220DA
:10580000CCE790F83530DBB2022B03D08023436520
:1058100001207047052380F835300268136823F0B3
:105820000103136000207047F0B583B004460023E5
:105830000193724B1E68876D3D68C26D08239340CB
:105840002B4210D003681A6812F0040F0BD01A68AC
:1058500022F004021A60C26D08239340BB60436DBE
:1058600043F001034365E26D012393402B4209D0CD
:105870002268526912F0800F04D0BB60636D43F060
:1058800002036365E26D042393402B4209D0226832
:10589000126812F0020F04D0BB60636D43F0040382
:1058A0006365E26D102393402B4224D02268126876
:1058B00012F0080F1FD0BB6023681A6812F4802F03
:1058C0000DD01B6813F4002F04D1236C9BB120462C
:1058D000984710E0A36C73B1204698470BE01A6814
:1058E00012F4807F03D11A6822F008021A60236C38
:1058F0000BB120469847E26D202393402B4255D0B0
:105900002268126812F0100F50D0BB6094F8353046
:10591000DBB2052B0ED023681A6812F4802F33D027
:105920001B6813F4002F2AD1636C002B3ED0204655
:1059300098473BE02268136823F01603136022683F
:10594000536923F080035361236CA3B12268136869
:1059500023F008031360E26D3F239340BB600123F3
:1059600084F83530002384F83430236D002B43D085
:105970002046984740E0A36C002BE7D1EBE7E36BB0
:10598000A3B12046984711E01A6812F4807F09D12C
:105990001A6822F010021A60012384F835300023BF
:1059A00084F83430E36B0BB120469847636D1BB32A
:1059B000636D13F0010F1BD0114BA3FB0636B60A23
:1059C000052384F835302268136823F0010313603F
:1059D000019B01330193B34204D823681B6813F081
:1059E000010FF5D1012384F83530002384F83430D9
:1059F000E36C0BB12046984703B0F0BD08000020CF
:105A0000B5814E1B406D70472DE9F04F83B00022E9
:105A100013464FF0010E03254FF00F087C4C4BE06E
:105A2000876805FA02FA27EA0A0ACF68974047EA28
:105A30000A078760476827EA0C0C4F68C7F300170E
:105A40009F4047EA0C07476044E04FF0000C0CFA17
:105A50000BFC4CEA0A0CC7F808C0A7686FEA090CEF
:105A60004E6816F4801F0CBF0CEA070749EA0707C7
:105A7000A760E7684E6816F4001F0CBF0CEA070722
:105A800049EA0707E76067684E6816F4003F0CBFF5
:105A90000CEA070749EA0707676027684E6816F4AB
:105AA000803F0CBF0CEA070749EA0707276001336C
:105AB0000232102B00F0A9800EFA03FC0F680CEAEA
:105AC00007093CEA0707F2D14F6807F00307013FD7
:105AD000012FA5D94F6807F00307032F23D0C7680C
