:020000040800F2
:1000000000000320955700084D5600084F56000881
:1000100051560008535600085556000800000000CD
:10002000000000000000000000000000575600081B
:1000300059560008000000005B5600085D56000895
:10004000E5570008E5570008E5570008E5570008A0
:10005000E5570008E5570008E5570008E557000890
:10006000E5570008E5570008E5570008E557000880
:10007000E5570008E5570008E5570008E557000870
:10008000E5570008E5570008E5570008E557000860
:10009000E5570008E5570008E5570008E557000850
:1000A000E55700086D560008E5570008E5570008B9
:1000B0007D560008E5570008E5570008E557000899
:1000C000E5570008E5570008E5570008E557000820
:1000D000E5570008E5570008E5570008E557000810
:1000E000E5570008E5570008E5570008E557000800
:1000F000E5570008E5570008E5570008E5570008F0
:10010000E55700088D560008E5570008E557000838
:10011000E5570008E5570008E5570008E5570008CF
:10012000E5570008E5570008E55700089D56000808
:10013000E5570008E5570008E5570008E5570008AF
:10014000E5570008E5570008E5570008AD560008D8
:10015000E5570008BD560008E5570008E5570008B8
:10016000E5570008E5570008E5570008E55700087F
:10017000E5570008E5570008E557000800000000B3
:10018000E5570008E5570008E5570008E55700085F
:10019000E5570008E5570008E5570008E55700084F
:0C01A0000000000000000000E55700080F
:1001B00010B5054C237833B9044B13B10448AFF3A1
:1001C00000800123237010BD000300200000000008
:1001D0007016010808B5034B1BB103490348AFF380
:1001E000008008BD00000000040300207016010814
:1001F000EC46A0E8F05F80EC108B4FF000007047F9
:10020000B0E8F05FE54690EC108B080008BF0120D5
:10021000704700BF00000000000000000000000068
:1002200001F0FF01102A2BDB10F0070F08D010F8A7
:10023000013B013A8B422DD010F0070F42B3F6D1AB
:10024000F0B441EA012141EA014122F007047FF0C4
:1002500000070023F0E80256083C85EA010586EA1B
:10026000010685FA47F5A3FA87F586FA47F6A5FA57
:1002700087F68EB9EED1F0BC01F0FF0102F0070263
:1002800032B110F8013B013A83EA010313B1F8D10E
:100290000020704701387047002D06BF35460338EF
:1002A000073815F0010F07D1013015F4807F02BF28
:1002B000013015F4C03F0130F0BC0138704700BF79
:1002C000034613F8012B002AFBD1181A0138704796
:1002D00081F0004102E000BF83F0004330B54FEAF7
:1002E00041044FEA430594EA050F08BF90EA020F64
:1002F0001FBF54EA000C55EA020C7FEA645C7FEAF7
:10030000655C00F0E2804FEA5454D4EB5555B8BF19
:100310006D420CDD2C4480EA020281EA030382EA8A
:10032000000083EA010180EA020281EA0303362D1C
:1003300088BF30BD11F0004F4FEA01314FF4801CEF
:100340004CEA113102D0404261EB410113F0004F01
:100350004FEA03334CEA133302D0524263EB4303B8
:1003600094EA050F00F0A780A4F10104D5F1200E56
:100370000DDB02FA0EFC22FA05F2801841F10001B1
:1003800003FA0EF2801843FA05F359410EE0A5F185
:1003900020050EF1200E012A03FA0EFC28BF4CF0B6
:1003A000020C43FA05F3C01851EBE37101F000456C
:1003B00007D54FF0000EDCF1000C7EEB00006EEB79
:1003C0000101B1F5801F1BD3B1F5001F0CD3490803
:1003D0005FEA30004FEA3C0C04F101044FEA44525A
:1003E00012F5800F80F09A80BCF1004F08BF5FEAE1
:1003F000500C50F1000041EB045141EA050130BDC1
:100400005FEA4C0C404141EB0101013C28BFB1F5D2
:10041000801FE9D291F0000F04BF01460020B1FA1D
:1004200081F308BF2033A3F10B03B3F120020CDAF0
:100430000C3208DD02F1140CC2F10C0201FA0CF0CE
:1004400021FA02F10CE002F11402D8BFC2F1200C33
:1004500001FA02F120FA0CFCDCBF41EA0C019040E9
:10046000E41AA2BF01EB0451294330BD6FEA040432
:100470001F3C1CDA0C340EDC04F11404C4F120021D
:1004800020FA04F001FA02F340EA030021FA04F32F
:1004900045EA030130BDC4F10C04C4F1200220FA86
:1004A00002F001FA04F340EA0300294630BD21FAC4
:1004B00004F0294630BD94F0000F83F4801306BF8A
:1004C00081F480110134013D4EE77FEA645C18BF7E
:1004D0007FEA655C29D094EA050F08BF90EA020F15
:1004E00005D054EA000C04BF1946104630BD91EA0D
:1004F000030F1EBF0021002030BD5FEA545C05D110
:100500004000494128BF41F0004130BD14F580044E
:100510003CBF01F5801130BD01F0004545F0FE41C2
:1005200041F470014FF0000030BD7FEA645C1ABFF7
:10053000194610467FEA655C1CBF0B46024650EA2E
:10054000013406BF52EA033591EA030F41F400215A
:1005500030BD00BF90F0000F04BF0021704730B5E0
:100560004FF4806404F132044FF000054FF00001B5
:1005700050E700BF90F0000F04BF0021704730B576
:100580004FF4806404F1320410F0004548BF40424B
:100590004FF000013EE700BF42004FEAE2014FEAA0
:1005A00031014FEA02701FBF12F07F4393F07F4F7B
:1005B00081F06051704732F07F4208BF704793F07E
:1005C0007F4F04BF41F40021704730B54FF4607491
:1005D00001F0004521F000411CE700BF50EA010294
:1005E00008BF704730B54FF000050AE050EA01023D
:1005F00008BF704730B511F0004502D5404261EBAD
:1006000041014FF4806404F132045FEA915C3FF4ED
:10061000D8AE4FF003025FEADC0C18BF03325FEA8A
:10062000DC0C18BF033202EBDC02C2F1200300FA3B
:1006300003FC20FA02F001FA03FE40EA0E0021FA60
:1006400002F11444BDE600BF70B54FF0FF0C4CF44E
:10065000E06C1CEA11541DBF1CEA135594EA0C0F00
:1006600095EA0C0F00F0DEF82C4481EA030621EA3B
:100670004C5123EA4C5350EA013518BF52EA033576
:1006800041F4801143F4801338D0A0FB02CE4FF028
:100690000005E1FB02E506F00042E0FB03E54FF058
:1006A0000006E1FB03569CF0000F18BF4EF0010E50
:1006B000A4F1FF04B6F5007F64F5407404D25FEA4C
:1006C0004E0E6D4146EB060642EAC62141EA5551FF
:1006D0004FEAC52040EA5E504FEACE2EB4F1FD0C41
:1006E00088BFBCF5E06F1ED8BEF1004F08BF5FEABF
:1006F000500E50F1000041EB045170BD06F0004671
:1007000046EA010140EA020081EA0301B4EB5C041D
:10071000C2BFD4EB0C0541EA045170BD41F4801115
:100720004FF0000E013C00F3AB8014F1360FDEBF3A
:10073000002001F0004170BDC4F10004203C35DA16
:100740000C341BDC04F11404C4F1200500FA05F399
:1007500020FA04F001FA05F240EA020001F000423A
:1007600021F0004110EBD37021FA04F642EB0601B0
:100770005EEA430E08BF20EAD37070BDC4F10C04DA
:10078000C4F1200500FA04F320FA05F001FA04F29E
:1007900040EA020001F0004110EBD37041F100018A
:1007A0005EEA430E08BF20EAD37070BDC4F1200595
:1007B00000FA05F24EEA020E20FA04F301FA05F2FD
:1007C00043EA020321FA04F001F0004121FA04F2A5
:1007D00020EA020000EBD3705EEA430E08BF20EA75
:1007E000D37070BD94F0000F0FD101F000464000AF
:1007F00041EB010111F4801F08BF013CF7D041EA31
:10080000060195F0000F18BF704703F00046520034
:1008100043EB030313F4801F08BF013DF7D043EA05
:100820000603704794EA0C0F0CEA135518BF95EABB
:100830000C0F0CD050EA410618BF52EA4306D1D142
:1008400081EA030101F000414FF0000070BD50EA61
:10085000410606BF1046194652EA430619D094EAEB
:100860000C0F02D150EA013613D195EA0C0F05D1D5
:1008700052EA03361CBF104619460AD181EA030129
:1008800001F0004141F0FE4141F470014FF00000E1
:1008900070BD41F0FE4141F4780170BD70B54FF07C
:1008A000FF0C4CF4E06C1CEA11541DBF1CEA1355FC
:1008B00094EA0C0F95EA0C0F00F0A7F8A4EB0504DE
:1008C00081EA030E52EA03354FEA013100F08880D5
:1008D0004FEA03334FF0805545EA131343EA12639E
:1008E0004FEA022245EA111545EA10654FEA002653
:1008F0000EF000419D4208BF964244F1FD0404F50C
:10090000407402D25B084FEA3202B61A65EB030567
:100910005B084FEA32024FF480104FF4002CB6EB24
:10092000020E75EB030E22BFB61A754640EA0C00A4
:100930005B084FEA3202B6EB020E75EB030E22BFE4
:10094000B61A754640EA5C005B084FEA3202B6EB25
:10095000020E75EB030E22BFB61A754640EA9C00E4
:100960005B084FEA3202B6EB020E75EB030E22BFB4
:10097000B61A754640EADC0055EA060E18D04FEA72
:10098000051545EA16754FEA06164FEAC30343EA12
:1009900052734FEAC2025FEA1C1CC0D111F4801FDF
:1009A0000BD141EA00014FF000004FF0004CB6E7D8
:1009B00011F4801F04BF01430020B4F1FD0C88BF77
:1009C000BCF5E06F3FF6AFAEB5EB030C04BFB6EB82
:1009D000020C5FEA500C50F1000041EB045170BD75
:1009E0000EF0004E4EEA113114EB5C04C2BFD4EBA2
:1009F0000C0541EA045170BD41F480114FF0000E26
:100A0000013C90E645EA060E8DE60CEA135594EAA1
:100A10000C0F08BF95EA0C0F3FF43BAF94EA0C0FA4
:100A20000AD150EA01347FF434AF95EA0C0F7FF419
:100A300025AF104619462CE795EA0C0F06D152EA6D
:100A400003353FF4FDAE1046194622E750EA410651
:100A500018BF52EA43067FF4C5AE50EA41047FF462
:100A60000DAF52EA43057FF4EBAE12E74FF0FF3CC7
:100A700006E000BF4FF0010C02E000BF4FF0010C98
:100A80004DF804CD4FEA410C7FEA6C5C4FEA430C11
:100A900018BF7FEA6C5C1BD001B050EA410C0CBF60
:100AA00052EA430C91EA030F02BF90EA020F0020C2
:100AB000704710F1000F91EA030F58BF994208BF29
:100AC00090422CBFD8176FEAE37040F001007047E6
:100AD0004FEA410C7FEA6C5C02D150EA013C07D13D
:100AE0004FEA430C7FEA6C5CD6D152EA033CD3D088
:100AF0005DF8040B704700BF8446104662468C4682
:100B00001946634600E000BF01B5FFF7B7FF0028B4
:100B100048BF10F1000F01BD4DF808EDFFF7F4FFDD
:100B20000CBF012000205DF808FB00BF4DF808ED68
:100B3000FFF7EAFF34BF012000205DF808FB00BF8B
:100B40004DF808EDFFF7E0FF94BF012000205DF8AD
:100B500008FB00BF4DF808EDFFF7CEFF94BF012062
:100B600000205DF808FB00BF4DF808EDFFF7C4FF5B
:100B700034BF012000205DF808FB00BF4FEA410CA4
:100B80007FEA6C5C02D150EA013C0AD14FEA430C87
:100B90007FEA6C5C02D152EA033C02D14FF00000C4
:100BA00070474FF0010070474FEA410212F5001202
:100BB00015D211D56FF47873B3EB625212D94FEAA4
:100BC000C12343F0004343EA505311F0004F23FA8E
:100BD00002F018BF404270474FF00000704750EAE3
:100BE000013005D111F0004008BF6FF000407047A0
:100BF0004FF00000704700BF53B94AB9002908BF41
:100C000000281CBF4FF0FF314FF0FF3001F052B908
:100C1000ADF1080C6DE904CE00F006F8DDF804E053
:100C2000DDE9022304B070472DE9F047089D8E46A8
:100C300004468846002B4AD18A42174662D9B2FA46
:100C400082F64EB1C6F1200301FA06F820FA03F34A
:100C5000B74043EA0808B4404FEA174E1FFA87FC32
:100C6000B8FBFEF1230C0EFB118843EA084301FB9D
:100C70000CF29A4209D9FB1801F1FF3080F0EA80AA
:100C80009A4240F2E78002393B449A1AA3B2B2FB7F
:100C9000FEF00EFB102243EA024300FB0CFC9C45D5
:100CA00009D9FB1800F1FF3280F0D6809C4540F254
:100CB000D3803B44023840EA0140A3EB0C030021FF
:100CC0001DB1F3400022C5E90032BDE8F0878B4238
:100CD00005D90DB1C5E9000100210846F5E7B3FAD1
:100CE00083F1002946D1734502D3824200F2058187
:100CF000841A6EEB030201209046002DE5D0C5E971
:100D00000048E2E7002A00F09080B2FA82F6002E56
:100D100040F0A4808A1A030C4FEA174E80B2BCB28E
:100D20000121B2FBFEFC0EFB1C2243EA024304FB42
:100D30000CF29A4207D9FB180CF1FF3802D29A4202
:100D400000F2E080C4469B1AB3FBFEF20EFB1233A6
:100D500040EA034302FB04F49C4207D9FB1802F16A
:100D6000FF3002D29C4200F2CA8002461B1B42EABC
:100D70000C40A5E7C1F120068B4022FA06F71F437D
:100D80000EFA01F420FA06F32EFA06FE4FEA17498E
:100D9000234300FA01F81FFA87FCBEFBF9F01C0C94
:100DA00009FB10EE44EA0E4400FB0CFEA64502FAD5
:100DB00001F209D93C1900F1FF3A80F09C80A64568
:100DC00040F2998002383C44A4EB0E041FFA83FEE3
:100DD000B4FBF9F309FB13444EEA044403FB0CFC97
:100DE000A44508D93C1903F1FF3E80F08280A44558
:100DF0007FD9023B3C4443EA0040A4EB0C04A0FB37
:100E000002EC64457346E14662D35FD05DB1B8EB56
:100E1000030264EB090404FA06F622FA01F31E4306
:100E2000CC40C5E9006400214FE7B1FBF2FC010CA6
:100E300041EA0E4180B240EA01423B4638463C4618
:100E4000B846BE462026B1FBF7F1A2EB080241EA04
:100E50000C4166E7014618E710462CE7C6F1200270
:100E60002EFA02F3B740B14020FA02F24FEA174ED1
:100E70000A43B3FBFEF8BCB20EFB1833110C41EA77
:100E8000034108FB04F9B04089454FEA104380B2A2
:100E90003ED9791808F1FF3C01D289451FD8A1EB52
:100EA0000901B1FBFEF909FB04F80EFB191192B21E
:100EB00042EA0142424529D2BA1809F1FF31C4D2AF
:100EC0004245C2D2A9F102013A44BEE7F0459DD2A3
:100ED000BEEB02036CEB070C0138E14696E7A7EB8B
:100EE00009094944A8F1020CB1FBFEF909FB04F819
:100EF000DBE773467FE7504666E70846FDE63B447E
:100F0000023A33E7ACF1020C3B441CE749469CE74C
:100F1000A1EB0901C446B1FBFEF909FB04F8C4E7E3
:100F200003685A004CBF43F0004323F000431844C9
:100F3000704700BF2DE9F04759B301F1FF3805466E
:100F4000164647464FF0000A0AEB070101EBD17144
:100F5000491005EBC1094846FFF7E2FF88454FEA13
:100F6000C104034610D004F10800B342284407D856
:100F7000FFF7D6FF0138B04208D201F1010AE3E7DA
:100F80008A4506D04F1EDFE7B042F9D84846BDE893
:100F9000F0874FF000094846BDE8F087012809D0E6
:100FA000022805D0044B00280CBF184600207047CB
:100FB00002487047024870478116000889160008E9
:100FC0008516000830B5224B83B004468D1E43B30E
:100FD00001A92846AFF30080F0B101992A46FFF736
:100FE000A9FF0146C0B1FFF79BFF4B68A064012B2E
:100FF0002BD0002B01F1040025DBFFF791FF00232C
:1010000023650368E064002B12DBFFF789FF0346CA
:101010000020236103B030BD00230920236103B009
:1010200030BD0C4B0C49C91AC91018460191D5E7BF
:10103000C3F30360FFF7B2FF031E0CBF09200020BB
:10104000236103B030BD0123DAE700230520E0E788
:1010500000000000F42F0108B43001080368DA072B
:1010600010B5044606D49B0700F1500009D500F0E6
:101070008FFC2368590709D51A070ED5DB0613D54F
:1010800010BD00F07DFC23685907F5D404F1D800A9
:1010900000F086FC23681A07F0D404F5AC7000F069
:1010A00087FC2368DB06EBD404F5EC70BDE8104048
:1010B00000F0C2BC0346006800B11844704700BF8E
:1010C00009207047704700BF70B504460E46316C6A
:1010D0002046FFF777FF054688B9326C62612369C5
:1010E00032462146012098470828F0D0072806D12B
:1010F0002846316CFFF7E6FF301D00F035FC10F09C
:1011000063FA00BF2DE9F04701F1040CC768D0F87D
:10111000188006469146BCE80F00ADF5767D03AC1D
:101120000FC4BCE80F000FC4BCE80F000FC49CE85C
:101130000F0002AD4FF0000E84E80F00C5F800E08C
:1011400021E02B6C73614FF4F47229467CA80EF0F9
:10115000A0FA33697CAA3146504698478A9BAB6413
:101160004946CDE900588246334601203246B84709
:10117000814630BB4FF4F4727CA928460EF089FA00
:10118000BAF1080F1AD1296C3046FFF71BFF09F19D
:10119000090904465FFA89FA0028D2D0AB6BAB6428
:1011A0003246CDE9005833464AF010010120B847D5
:1011B00038B920460DF5767DBDE8F087BAF1070F06
:1011C00005D0092420460DF5767DBDE8F087484618
:1011D000296CFFF777FF03A800F0C6FB806C70470F
:1011E000F0B5CB6BFBB001F1040C0B640E46054669
:1011F000BCE80F0001AC0FC4BCE80F000FC4BCE892
:101200000F000FC49CE80F004FF0FF3784E80F0079
:10121000009706E02B696A46294698470828044645
:1012200008D110992846FFF7CDFE0028F2D00920FA
:101230007BB0F0BD6846FFF711FF062CF7D13146B1
:101240002846FFF741FF00BFC160D96B8261196476
:101250000022194656E700BF70B5C66843690B64A3
:10126000AEB903690A4604460D4601460220984776
:10127000072805D008280FD129462046FFF724FF6C
:101280003046296CFFF71EFF281D00F06DFB012280
:10129000FFF738FF10F098F910F096F9C2681AB10C
:1012A000CA6B0A6400222DE79AE700BF704700BFAF
:1012B000836801460BB1012018477047052915D8EE
:1012C000DFE801F00A031403030501207047009AC8
:1012D000436C13600020704743B90F2A06D800EB17
:1012E000820200205368009A136070470220704702
:1012F00000B585B00A46002303A900911946FFF7FF
:10130000DDFF039805B05DF804FB00BF052915D883
:10131000DFE801F00A031403030501207047009B76
:101320001B6843640020704743B90F2A06D8009B0E
:1013300000EB82021B685360002070470220704758
:1013400010B584B0002303AC039200940A461946FA
:10135000FFF7DCFF04B010BD70B5D36BADF5107DA9
:1013600002F1040C136405460C46BCE80F000DF1B5
:101370005C0EAEE80F00BCE80F00AEE80F00BCE862
:101380000F00AEE80F009CE80F004FF0FF368EE82C
:101390000F00169610E0FFF7D3FF214616A8A847C6
:1013A000034616AA0820694683B9049B9847052876
:1013B00006460CD0092809D026996846FFF702FE98
:1013C00003460C216A4616A8002BE4D0092616A86D
:1013D000FFF744FE30460DF5107D70BD2DE9F04F4E
:1013E0001646CA6C89B00D4652F8041B069200F0EE
:1013F000030C002B79D00C0C8DF81D400904E4B2CD
:10140000059102EB840202218DF81C10296DBCF1BC
:10141000020F08BFAA6B11F0010809D005A93046D8
:1014200000F0A4FB002856D1082009B0BDE8F08FD9
:101430001768002FF2D000F00801CDE90118E3464B
:101440009A46BAF1020F4CD01788548802F1040969
:10145000AA6C24F001030F21304603EB0208FFF7CA
:1014600047FF80453BD827F0010202EB0803834287
:1014700094BF00230123640004F0020407F0010775
:101480002743012F4ED0022F35D027BBBBF1000FD1
:1014900002D0002B40F0D38009F104021768002F1E
:1014A000CFD105A93046DDF8088000F05FFB90B988
:1014B000B8F1000FB8D00F213046FFF719FF0E2109
:1014C00002463046FFF73CFF6C4A0F213046FFF7DB
:1014D00037FF072000E0092009B0BDE8F08F0023A6
:1014E000C9E7546802F10809B2E7090205918DF8CD
:1014F0001D30032188E7D9F8004024F00048BBF1F3
:10150000000F47D12BB1019B002B5CD0B8F1000F2D
:1015100059D0002C01DA09F1040908F1010209EBA4
:101520008202BBE7BBF1000F1CD1C3B1D9F8043074
:10153000D9F80020991C4FEAD272CCD005F158049A
:101540000133049400F08E8009F10400FFF7B2FD2E
:1015500004AB01462846AFF30080002859D109F1B9
:1015600008029BE70D213046FFF7C2FE2C6A844239
:10157000F5D1AB6A9945F2D14846FFF7D1FC0F216E
:1015800002463046FFF7DCFE2A4600213046FFF7D0
:10159000D7FE9EE70D213046FFF7AAFE2F6A87424D
:1015A000B7D1AB6A9945B4D100240423C5E90B43F4
:1015B0004B44C5F828806B63D9F80030A34258DB50
:1015C00001230293A9E705F15803CDF80CB009F106
:1015D0000407B34600241E460BE038460496FFF786
:1015E00069FD0022014604AB2846AFF300800437B2
:1015F000F8B9444504F10104EFD10D215846FFF735
:1016000077FE049BC5F828900246C5E9082306200A
:1016100062E704460D213046FFF76AFE049E286209
:10162000022C04BFEE6205F12C06C5E9096906200B
:1016300052E75E46D9F80040DDF80CB069E748464D
:10164000FFF76EFC09F104030446AB632846AFF3D1
:10165000008000283FF43FAF22460F213046FFF7BD
:101660006FFE36E730460D21FFF742FE2646286220
:10167000DBE708F1010209EB82007EE700000000D1
:101680000023ABE60123A9E60223A7E62DE9F041FA
:101690000646C4B01446052900F2E880DFE811F0E0
:1016A00012002D00E60066008B000600836B002C04
:1016B00040F0DC8053F8042B42648363002044B084
:1016C000BDE8F081002B40F0D180856B1FFA84FCCF
:1016D000012006F1040E00FA03F111EA0C0F2A466C
:1016E00004D052F8041B4EF8231015460133102B7A
:1016F000F1D1A704E2D4B563E0E7012B4FEA144728
:10170000A4B27CD0052B40F0B18007EB0408B8F1FF
:10171000200F00F2AB800F2F40F2AA80002CCDD01A
:101720000268550700F1FF80019302AD284600F0E2
:101730003BF96400A7F11000B26B019B611E05EB41
:10174000C0000131043802EB810152F8044B40F82B
:10175000044F8A42F9D1012B00F0CD800F2FB263E4
:1017600040F2E980284600F01BF9A7E7032B7DD162
:10177000A7B207EB1443102B4FEA144476D8036842
:10178000190700F1A48022AD284600F033F97A0051
:10179000B06B05EBC404531E42B1011B625844F800
:1017A000042B013B5A1CF9D100EBC700B06328465B
:1017B00000F0FEF882E7002B58D1102C56D80368B1
:1017C000D8067CD422AD284600F040F9B76B2946F4
:1017D00000234FF0010C0CFA03F22242384603F1C9
:1017E000010303D050F8042B0A600746042B01F1D3
:1017F0000401F0D1B763284600F01EF95EE73A19FC
:10180000102A33D8102F31D00268D10708D53046BE
:1018100022F0030240F8502B019300F0B5F8019B31
:10182000019322AD284600F0AFF8B16B019B002C6C
:1018300062D06200013A05EBC7004FF000080132A8
:10184000043801EB820251F8044B40F8044F9142F6
:10185000F9D1B8F1000F42D1012B4DD00F2FB16358
:101860003FF62CAF284600F093F827E7022026E742
:101870000268B8F1100F02F0010143D951B122F012
:10188000010242F0020240F8502B019300F084F86C
:101890003268019B0193500751D422AD284600F0D5
:1018A0007BF802A800F080F8C7F110025200B16B7B
:1018B000019BA8F11008013A05EBC700BFE723F030
:1018C0001003336006F5EC7000F0C0F87AE723F0FF
:1018D0000803036000F5AC7000F08CF853E7102F9C
:1018E000384638BF10204FEA4801103802AD0139A0
:1018F00005EBC00025E722AD0431B163284600F0B6
:101900003FF8DBE619BB22AD2846019300F044F80E
:10191000B16B002CA6D06200019B013A05EBC70019
:101920004FF000088BE722F0040240F8D82B019317
:1019300000F03AF8F9E622A800F02AF812E730465B
:1019400022F0040240F8D82B00F02EF8A5E730462C
:1019500022F0010242F0020240F8502B019300F005
:101960001BF8019BCFE700BF00F1340191E838007C
:101970009C46A6464CF8045D90E8FF0FE54600BD86
:1019800090EC210B704700BF80EC210B704700BF2B
:1019900090EC200B704700BF80EC200B704700BF1D
:1019A000D0EC200B704700BFC0EC200B704700BF8D
:1019B000F0EC0201F0EC0211F0EC0221F0EC02314B
:1019C000F0EC0241F0EC0251F0EC0261F0EC02713B
:1019D000F0EC0281F0EC0291F0EC02A1F0EC02B12B
:1019E000F0EC02C1F0EC02D1F0EC02E1F0EC02F11B
:1019F000704700BFE0EC0201E0EC0211E0EC0221D4
:101A0000E0EC0231E0EC0241E0EC0251E0EC02617A
:101A1000E0EC0271E0EC0281E0EC0291E0EC02A16A
:101A2000E0EC02B1E0EC02C1E0EC02D1E0EC02E15A
:101A3000E0EC02F1704700BFB0FC0181B0FC019105
:101A4000B0FC01A1B0FC01B1704700BFA0FC018156
:101A5000A0FC0191A0FC01A1A0FC01B1704700BF56
:101A6000EC4600B52DE900502DE9FF1F4FF00003B3
:101A70002DE90C0001A9FFF7B3FBDDF840E012B03F
:101A8000704700BFEC4600B52DE900502DE9FF1F5F
:101A90004FF000032DE90C0001A9FFF7DDFBDDF895
:101AA00040E012B0704700BFEC4600B52DE9005091
:101AB0002DE9FF1F4FF000032DE90C0001A9FFF7EE
:101AC000EDFBDDF840E012B0704700BFEC4600B51A
:101AD0002DE900502DE9FF1F4FF000032DE90C0008
:101AE00001ABFFF7B1FBDDF840E012B0704700BF7B
:101AF000EC4600B52DE900502DE9FF1F4FF0000323
:101B00002DE90C0001AAFFF727FCDDF840E012B038
:101B1000704700BF027A03467AB9427AA2B141689F
:101B2000013A10B44272086803220C1D1A720202B4
:101B30005C60000E10BC1A6070470068013A1A72AF
:101B400002021A60000E7047B020704700B585B0E1
:101B500003AA0023009219460C22FFF7AFFB03985B
:101B600005B05DF804FB00BFF0E700BF2DE9F043CE
:101B7000064685B00D464FF000082846FFF7CAFF1D
:101B8000B028044600F01C8107065BD500F0F00386
:101B9000A02B1AD030D8802B00F08280902B27D138
:101BA00000F00D030D2B23D002AF002300F00F0235
:101BB000194600973046FFF781FB002300970D225E
:101BC00019463046FFF7A2FBD7E7C34303F00703EC
:101BD0004FF47F621A41010702F47F6201D542F49B
:101BE0008042002319463046FFF750FD0028C4D03C
:101BF000092005B0BDE8F083B02B68D0C02B3DD1E3
:101C0000C62800F0CA80C72800F0DF8000F0F80383
:101C1000C02B00F0EC80C82800F0F780C928E7D17D
:101C20002846FFF777FF020300F00F0002F470224E
:101C300001300243012105233046FFF727FD00282C
:101C40009BD0D5E78300DBB21F1D0DF108090023EF
:101C50001946CDF800900D223046FFF72FFB029B6E
:101C6000CDF8009060064CBFDF1BFF1800230D224B
:101C7000194630460297FFF749FB7EE700F0F8036C
:101C8000D02BB5D100F007020132052342F4002227
:101C900001213046FFF7FAFC00283FF46EAFA7E7BA
:101CA0002846FFF737FF24022043B0F5004F9FD0AE
:101CB00004010023A2B219463046FFF7E7FC0028D2
:101CC00096D114F4004F18BF4FF0010855E7A0F16A
:101CD000B103042B00F2B580DFE803F05529160CA0
:101CE000030003AA0023009219460D223046FFF795
:101CF000E5FA42E700231A4605213046FFF7C6FC05
:101D000000283FF43AAF73E72846FFF703FF0203CA
:101D100000F00F00013002F4702201230243194643
:101D20003046FFF7B3FC00283FF427AF60E70023FD
:101D30000DF108090D221946CDF800903046FFF745
:101D4000BDFA2846FFF7E6FE0206029C4FF00207A6
:101D50000BD500F07F00B840044428460294FFF7FA
:101D6000D9FE030607F10707F3D4B840002304F5B2
:101D700001740444CDF800900D22194630460294B7
:101D8000FFF7C4FAF9E62846FFF7C4FE431EDBB2AC
:101D90000E2B02467FF625AF2AE72846FFF7BAFE4C
:101DA000020300F00F00013002F47022032302430B
:101DB00019463046FFF76AFC00283FF4DEAE17E70D
:101DC000B8F1000F2DD0002013E72846FFF7A2FE40
:101DD000431EDBB20E2B02463FF60AAF002304215E
:101DE0003046FFF753FC00283FF4C7AE00E700F091
:101DF0000F020132032342F4202219463046FFF736
:101E000045FC00283FF4B9AEF2E62846FFF782FE13
:101E100000F0F00200F00F031032013343EA023207
:101E200008E702AC4346414600940E223046FFF7D5
:101E300045FA0F220094434641463046FFF766FAC2
:101E4000C1E700F0FC03B42B3FF4D2AE00F0070270
:101E50000132012342F4002219463046FFF716FCF6
:101E600000283FF48AAEC3E610B5C26C536884B054
:101E70004FF0030C08321C0208461B0E01A9019406
:101E800002928DF80CC08DF80D30FFF76FFE04B094
:101E900010BD00BF08B5FFF767FE806C08BD00BF2E
:101EA00008B5FFF761FEC06CC37900EB8300083012
:101EB00008BD00BF704700BFF0B50023136001F0FC
:101EC0000105C1F34001431C2B440B4403F0010303
:101ED0007F4C1026A66126684FF4807494FAA4F40F
:101EE000B4FA84F464004FF0030C0CFA04F426EA0C
:101EF000040C4FF4807494FAA4F4B4FA84F46400EB
:101F00000126A64046EA0C06714C26604FF4800676
:101F1000A6614FF48077A7614027A761A6610028DA
:101F200000F0978020464FF4807484616848402612
:101F300086614FF4800484614FF480778761866105
:101F40008461002D00F08A808761614840248461AB
:101F50004FF480048461002900F0858001464FF42D
:101F6000807088615A49402088614FF48000886100
:101F7000002B7DD00B464FF480719961544B40206B
:101F800098614FF4800199614FF080749C61986171
:101F900099614FF48071996198614FF48010986154
:101FA0001B6891FAA1F1B1FA81F14900032000FA0E
:101FB00001F123EA0101464B19604FF48001996158
:101FC00040219961002001461C464FF480064025BF
:101FD000A6612369A561C3F300238B401843013137
:101FE0000329F5D1012848D0022803D0042814BFC2
:101FF00004200320364B4FF480029A6140229A61FC
:1020000010229A6119684FF4807393FAA3F3B3FA1C
:1020100083F35B00032202FA03F321EA03014FF486
:10202000807393FAA3F3B3FA83F35B00012202FAFD
:1020300003F30B43264A13600822254B4FF4800517
:102040004FF0807440219D619C619961013AFAD101
:10205000F0BD1F484FF08074846167E71C484FF063
:102060008074846171E71A494FF08070886179E764
:10207000174B4FF08071996180E74FF0000E734667
:10208000134C4FF480064025A661216901F480714C
:10209000A561002914BF4FF0010C4FF0000C0CFAA1
:1020A00003FC116841EA0C01116018BF8EF0010EAB
:1020B0000133202BE8D1064A4FF480039361136962
:1020C00040219161C3F300239E4518BF052091E78D
:1020D00000040240F0B401F00106C1F3400185198B
:1020E0000D4405F00105934C1027A76127684FF4B4
:1020F000807494FAA4F4B4FA84F464004FF0030CEE
:102100000CFA04F427EA040C4FF4807494FAA4F453
:10211000B4FA84F464000127A74047EA0C07854C11
:1021200027604FF48007A7614FF4807CC4F818C083
:102130004FF0400CC4F818C0A761002800F092804E
:1021400020464FF4807484617A48402787614FF4B9
:10215000800484614FF0807CC0F818C0876184617E
:10216000002E00F084804FF4807484617148402414
:1021700084614FF48004846100297DD001464FF4CE
:10218000807088616B49402088614FF480008861CD
:10219000002D76D04FF480708861664940248C61B0
:1021A0004FF4800088614FF080758D618C6188618B
:1021B0004FF4807088618C614FF480148C610C68DE
:1021C00090FAA0F1B1FA81F14900032000FA01F17F
:1021D00024EA010457490C604FF4800088614020D4
:1021E0008861002420460D464FF480074026AF61E9
:1021F0002969AE61C1F30021A14008430134032CD9
:10220000F5D1012802D0002B00F08D80494B4FF40E
:1022100080019961402199611021996118684FF4FA
:10222000807393FAA3F3B3FA83F35B00032101FAFB
:1022300003F320EA03004FF4807393FAA3F3B3FA95
:1022400083F35B00012101FA03F3034339490B6077
:10225000002423464FF480054FF0807C40264FF445
:10226000807719E033484FF0807484616CE731481F
:102270004FF08074846179E72E494FF08070886157
:1022800080E72C494FF08070886186E7C1F818C05C
:102290008E610133202B0AD08D6122FA03F010F0F9
:1022A000010FF3D08F618E6184F00104F1E7214BBF
:1022B0004FF480029A618CB34FF480729A611D4B87
:1022C00040229A6101201B4B10229A6119684FF439
:1022D000807393FAA3F3B3FA83F35B00032202FA49
:1022E00003F321EA03014FF4807393FAA3F3B3FAE3
:1022F00083F35B00012202FA03F30B430D4A1360E0
:1023000008220C4B4FF480054FF0807440219D61F2
:102310009C619961013AFAD1F0BC7047054B4FF0CE
:1023200080729A61CBE70228CDD0042814BF042024
:102330000320C8E70004024070B42F4B10229A61BA
:1023400019684FF4807393FAA3F3B3FA83F35B0035
:10235000032202FA03F321EA03014FF4807393FA94
:10236000A3F3B3FA83F35B00012202FA03F30B43F6
:10237000214A13604FF4807393613C234FF4800033
:10238000402190619161013BFBD100231A4A4FF437
:1023900080044EF29E7C4FF080764FF48075402092
:1023A00094614CFA03F111F0010F14BF956196612D
:1023B00090610133102BF3D10F4B4FF480729A616F
:1023C0003C230D4A4FF48000402190619161013B14
:1023D000FBD1094B4FF080729A61102302F17C52BD
:1023E00002F501324FF48000402190619161013B80
:1023F000FBD170BC704700BF000402402DE9F041E2
:1024000006460D46C8244FF00008012743462A46D9
:1024100031463846FFF75EFE02280AD1013CF5D16D
:10242000064B1A680146A020054B00FB0230FDF761
:10243000E7FE0128F4D1BDE8F08100BF00000020D4
:1024400020030020F8B507460E46C82400252B4679
:10245000324639462846FFF73DFE02280AD1013CA4
:10246000F5D1064B1A680146A020054B00FB02304F
:10247000FDF7C6FE0128F4D1F8BD00BF0000002022
:1024800020030020F8B506460D46C82401272A4639
:1024900031463846FFF710FD02280AD1013CF6D13B
:1024A000054B1A680146A020044B00FB0230FDF7E3
:1024B000A7FE0128F4D1F8BD000000202003002071
:1024C000F8B506460D46C82400272A463146384648
:1024D000FFF7F2FC02280AD1013CF6D1054B1A683D
:1024E0000146A020044B00FB0230FDF789FE0128C5
:1024F000F4D1F8BD000000202003002030B583B0E7
:1025000000240194FFF718FF01A92046FFF7D8FF28
:1025100004212046FFF796FF184D29460120FFF7BA
:10252000CFFF21460120FFF78DFF29460120FFF74D
:10253000C7FF4FF0A0410120FFF784FF4FF49674CE
:10254000012569462846FFF7BBFF009B03F02043A7
:10255000B3F1204F0AD0013CF3D1094B1A68152181
:10256000A020084B00FB0230FDF74AFE00210220AC
:10257000FFF768FF019803B030BD00BF1C030020C7
:10258000000000202003002000B583B0F0210220CD
:10259000FFF758FF01A90320FFF774FF01A90320EB
:1025A000FFF78EFF00210220FFF74CFF019803B0D8
:1025B0005DF804FB08B502490020FFF71FFF08BDC6
:1025C0000200002208B503F061F908BD044B1A6847
:1025D000002353620138536A8342FCD3704700BF23
:1025E0003CC300200138142834D8DFE800F00B3554
:1025F0000D0F1113153117191B1D1F212325272915
:102600002B2D2F0015487047154870471548704707
:10261000154870471548704715487047154870476A
:10262000154870471548704715487047154870475A
:10263000154870471548704715487047154870474A
:10264000154870471548704715487047154870473A
:102650001548704715487047154870478816010897
:10266000C0160108E01601080C1701081C17010824
:10267000281701083C1701085417010870170108B2
:10268000AC170108C4170108E81701081C18010855
:10269000401801086C1801088018010898180108F2
:1026A000B0180108D8180108FC1801080C19010815
:1026B00094160108F0B583B014490120FFF79EFE7F
:1026C00013490320FFF79AFEC824104F0126032563
:1026D00039463046FFF792FE01A92846FFF7D2FEA1
:1026E00001A92846FFF7ECFE019B13F4003F0AD135
:1026F000013CEDD1074B1A681421A020064B00FBCA
:102700000230FDF77DFD03B0F0BD00BFF0ED00E04D
:1027100003005FA0000000202003002010B5084C3B
:1027200000224FF48071204603F008FD3220FFF7AD
:1027300049FF01224FF48071204603F0FFFC10BDD9
:102740000000024000B583B001460120FFF756FEAD
:1027500001A90320FFF796FE01A90320FFF7B0FEB1
:10276000019803B05DF804FB10B50C46014601204A
:10277000FFF744FE21460320FFF740FE10BD000096
:1027800070B500211F48FFF7EFFF1F4C2046FFF7F1
:10279000D9FF2046FFF7D6FF1C491D48FFF7E4FF8D
:1027A0006420FFF713FFC8240A26174D3046FFF7B1
:1027B0000DFF2846FFF7C6FF10F0007F0AD1013C4D
:1027C000F4D1144B1A681021A020134B00FB0230E7
:1027D000FDF716FDC8240A260B4D3046FFF7F6FE1E
:1027E0002846FFF7AFFF10F0007F0AD0013CF4D17C
:1027F000084B1A681021A020074B00FB0230FDF7A0
:10280000FFFC70BDFCED00E0F0ED00E00400FA0517
:102810000CED00E000000020200300200B4B98424C
:1028200010D003F1BF4303F5BE0303F58053984274
:102830000AD003F14043A3F58053984214BF00200F
:102840000120704701207047012070477714C10BA9
:10285000094B98420CD003F10043303B984209D019
:1028600003F120431033984214BF00200120704729
:1028700001207047012070473100770438B50546C4
:102880004FF4FA70FFF7A2FEFFF738FE0446286007
:10289000FFF7C4FF68B11424FFF776FE6860FFF706
:1028A000D7FF08B9013CF7D1FFF784FEFFF702FF1D
:1028B00038BD214605480CF0ABFC054B1A680821D1
:1028C000A020044B00FB0230FDF79AFC1C19010804
:1028D0000000002020030020F8B5124B1B79DBB16B
:1028E000104B5B79D3B1104B1B681A6882B100247E
:1028F0000E4D0D4E211D28689F685A6829442044BA
:10290000B84768B933685A6814441A68A242F1D8C3
:102910000020044B187100E00020F8BD0020FCE707
:102920000120FAE7A4C10020ACC10020A44100208E
:10293000002A4CD02DE9F04F83B007468A46154651
:10294000DFF89880DFF898B00BF500490BF104032D
:10295000019321E0FFF7C0FF00283CD1CBF80060D5
:102960004FF40042FF2101980CF014FE002389F877
:102970000430012389F80530009B981B22465146FC
:1029800058440CF086FE012389F804302744A24401
:102990002C1B14F0FF0514D0D8F800301B685E42E1
:1029A0003E403A1D0092F41B1C44AC4228BF2C460A
:1029B00099F80530002BCDD0DBF800309E42C9D10C
:1029C000DAE7002080F0010003B0BDE8F08F0020BE
:1029D00080F0010070470120F4E700BFACC1002087
:1029E000A441002008B501F003FD08BD082A01D06C
:1029F0000020704708B50A684B6801F063FE08BD07
:102A0000082A01D00020704708B50A684B6801F019
:102A100009FB08BD082A01D00020704708B50A68E4
:102A20004B6801F0CBF908BD00B583B001904FF6BB
:102A3000FF73012201A9034806F063FC019803B06B
:102A40005DF804FBF4C200200FB410B5D6B058AB4B
:102A500053F8042B15934FF4807116A80CF0F8FC72
:102A60001B4C002210A9204604F0CBFE00220FA927
:102A7000204604F0ECFEE1689DF83F30119A8A1A76
:102A80004FF47A7000FB02F20131B2FBF1F20592D1
:102A90009DF8422004929DF8412003929DF8402029
:102AA00002929DF83E2001929DF83D20009203F590
:102AB000FA63084A202107A80CF022FC16AA07A9ED
:102AC00005480CF0A5FB56B0BDE8104004B07047B7
:102AD00068C50020341901085819010810B5844848
:102AE000FFF7B2FFFFF71AFE3220FFF76BFD814BB5
:102AF00018680130186000EB80007F4B03EB40103A
:102B0000FDF776FB002840F0C3817C4C2046FFF7A0
:102B1000B5FE21687A4B994262D07A4B994265D0D2
:102B2000794B994268D17948FFF70CFEC0F30B004E
:102B3000A0F24340502800F2A381DFE810F06800C3
:102B4000A101A101A101A101A101A101A101A10175
:102B500068006800A101A1012A01A101A10168008A
:102B6000A101A101A800A101A1010901A101A101E7
:102B7000A101A101A101A101A800A101A101A1013F
:102B8000A101A101A800A80079017901A101A10179
:102B9000A101A101A101A101A101A101A101A10125
:102BA000A101A101A101A101A1017901A101A1013D
:102BB000A101A101A101A1012A01A101A1012A01F3
:102BC000A1012A01A101A101A1010901A101A10104
:102BD000A101A101A101A101A101A101A10168001F
:102BE0004B48FFF7AFFDC0F30B00A1E74948FFF7E3
:102BF000A9FDC0F30B009BE74748FFF725FF3F4BBC
:102C000000221A72DA6000203A4B18604DE13B4C0A
:102C1000052323723D48FFF795FDC0F30B01E160EA
:102C20003E48FFF711FFE16840F25343994212D842
:102C300040F24243994226D9A1F24343102B22D8B5
:102C4000DFE803F0112121212121212121191D215A
:102C500021212121150040F29343994213D130489C
:102C6000FFF7F2FECFE72F48FFF7EEFECBE72E4847
:102C7000FFF7EAFEC7E72D48FFF7E6FEC3E72C485B
:102C8000FFF7E2FEBFE72B48FFF7DEFEBBE71B4C7A
:102C9000072323721D48FFF755FDC0F30B01E160C8
:102CA0002548FFF7D1FEE168A1F25643112B1AD84F
:102CB000DFE803F0111919191919191919190D1942
:102CC0001919191915091D48FFF7BEFE9BE71C4885
:102CD000FFF7BAFE97E71B48FFF7B6FE93E71A48DF
:102CE000FFF7B2FE8FE71948FFF7AEFE8BE700BF94
:102CF000701901080000002020030020B0C100204E
:102D00007714A02B7724A06B7714C10B00580140D7
:102D1000002004E00010005C801901089C190108E3
:102D2000FC190108CC190108DC190108EC1901088B
:102D30000C1A0108201A0108441A0108741A010823
:102D4000A01A0108CC1A0108F81A0108241B01086E
:102D5000564C012323725648FFF7F4FCC0F30B01D5
:102D6000E1605448FFF770FEE16840F25943994230
:102D700007D040F28943994207D04F48FFF764FEDD
:102D800041E74E48FFF760FE3DE74D48FFF75CFE28
:102D900039E7464C0F2323724A48FFF7D3FCC0F3B0
:102DA0000B01E1604848FFF74FFEE168B1F5906F15
:102DB0000AD040F2834399421BD0B1F58A6F22D0EA
:102DC0004248FFF741FE1EE74148FFF73DFE4148FC
:102DD000FFF7B8FCB0F1800218BF0122334B5A61F3
:102DE0003D493E4B802818BF19463D48FFF72CFE51
:102DF00009E73C48FFF728FE2C4B00225A613A486D
:102E0000FFF722FEFFE63948FFF71EFE3848FFF7BE
:102E100099FCB0F1800218BF0122244B5A612E495F
:102E20002E4B802818BF19462D48FFF70DFEEAE605
:102E30001E4C0A2323722F48FFF784FCC0F30B01BA
:102E4000E1602D48FFF700FEE16840F269439942D6
:102E50000AD040F2794399420AD0B1F58D6F0BD177
:102E60002648FFF7F1FDCEE62548FFF7EDFDCAE65F
:102E70002448FFF7E9FDC6E62348FFF7E5FDC2E673
:102E80002248FFF7E1FD094B00221A72DA60BAE628
:102E9000FFF7A8FB01461E48FFF7D6FD1D48FFF7C8
:102EA000D3FDC820FFF78EFB012010BDB0C100206C
:102EB00000580140481B01089C1B0108781B0108B1
:102EC000881B01080010005CC01B0108881C010859
:102ED000F01B01080CF8FF086819010860190108C7
:102EE000041C0108141C01082C1C0108441C0108C6
:102EF00080E8F11F002004E0AC1C0108DC1C010884
:102F0000041D0108501D0108781D01089C1D0108C1
:102F1000CC1D0108DC1D010808B5084B1A7A0F2AE0
:102F200008D848F2A203D34013F0010F02D04FF0AB
:102F3000006008BD0248FFF787FDF8E7B0C1002038
:102F4000FC1D0108002A4AD02DE9F04F91B0064639
:102F50000C461546D71CBF10ADF10408C2464FF011
:102F6000000910ABC3F1440B83440BEB0A00FFF7DD
:102F7000E9FB4AF8040F09F101094F45F5DC08A8FF
:102F80008446002258F8043F8CF80030190A8CF867
:102F90000110190C8CF802101B0E8CF80330013252
:102FA0000CF1040C9742EDDC214600230F46013161
:102FB00010F8014B3A78A24204D101339D42F5D179
:102FC000012009E099190748FFF73EFD3A782146AC
:102FD0000548FFF739FD002011B0BDE8F08F012052
:102FE000704700BF3C1E0108641E01082DE9F04136
:102FF000ADF5AD6D6E48FFF727FD0DF58A616D48A3
:103000000BF08CF848B30DF58A616B480BF086F82D
:10301000002840F0C48000230093FFF77DFF07469F
:1030200042A965480BF07AF8002864D10122624970
:1030300088A80AF009FE002862D14FF010086B46FC
:103040004FF4807202A988A80AF02EFF00285CD1F4
:10305000009D002D61D000247FE00023019342A950
:1030600054480BF05BF858B90122524988A80AF07D
:10307000EBFD50B9514801F091FC01F07DFC20E0DE
:103080004F48FFF7E1FC01208DE04E48FFF7DCFCE4
:10309000012088E04C48FFF7D7FC88A80BF029F8FE
:1030A000012080E088A80BF024F808B900207AE01D
:1030B0004648FFF7C9FC012075E002A801F074FC46
:1030C00088B101AB4FF4807202A988A80AF0ECFE27
:1030D0000028DFD101990029E4D0FF29EDD8002391
:1030E00002AA5354E9E73A48FFF7AEFC88A80BF070
:1030F00000F8012057E03248FFF7A6FC012052E01B
:103100003048FFF7A1FC01204DE02F48FFF79CFC61
:1031100088A80AF0EEFF012045E088A80AF0E9FF40
:1031200008B900203FE02948FFF78EFC01203AE073
:103130002848FFF789FC88A80AF0DBFF012032E06D
:10314000464606F0FC0202AB1919E019FFF7FAFE39
:10315000D8B13444009DA5421FD92A1B102AEFD8AC
:1031600032F00306EDD14FF0FF33019302AB191992
:1031700001A80CF08EFA04220DEB0201E019FFF712
:10318000E1FE0028D4D02C46E4E71248FFF75CFCAF
:1031900088A80AF0AEFF012005E02F444FE70E4853
:1031A000FFF752FC01200DF5AD6DBDE8F08100BFC9
:1031B000901E0108A01E0108041F0108452F0008E9
:1031C000B01E0108C01E0108D01E0108E01E010843
:1031D000F01E0108141F01082C1F010800B5C7B01C
:1031E0004B48FFF731FC69464A480AF097FF002830
:1031F00040F086804848FFF727FC484B1B7A013B8C
:103200000E2B79D8DFE803F04478787808785E7878
:1032100078787878787822004148FFF715FC00F03C
:1032200045FD00F00DFEBB2000F058FE00F048FE0A
:10323000FFF754FC00F0F0FD00F056FD3948FFF7B1
:1032400081FAC1B23848FFF7FFFB5CE03448FFF772
:10325000FBFB012001F066F8022001F063F801F0A9
:103260001DF94FF43B4001F085F901F04BF901F0F5
:1032700035F9022001F09AF8012001F097F82B4867
:10328000FFF760FA00F47F412748FFF7DDFB3AE0E3
:103290002348FFF7D9FB01F08DF901F055FABB2067
:1032A00001F0A0FA01F090FAFFF718FC01F038FAEB
:1032B00001F09EF91E48FFF745FAC1B21A48FFF720
:1032C000C3FB20E01648FFF7BFFB00F031FE00F023
:1032D00005FFBB2000F030FF00F020FFFFF7FEFBF2
:1032E00000F0E4FE00F0CCFE0E48FFF72BFAC1B26E
:1032F0000D48FFF7A9FB06E00E48FFF7A5FB02E02B
:103300000D48FFF7A1FB002047B05DF804FB00BFAC
:10331000441F0108641F0108701F0108B0C100208C
:10332000901F01080078FF1FE01F01081C200052B9
:1033300020200240F81F01082C20010800B9704726
:1033400008B50548FFF780FB032001F037FD032097
:1033500001F0D0FA08BD00BFEC26010808B5FFF760
:10336000BBFA003818BF012008BD0000072809D0AB
:103370000F2809D0054B064A012818BF1346054AF5
:1033800013607047044BFAE7044BF8E71000002085
:1033900028000020ACC100201C00002004000020F8
:1033A0002DE9F04F2DED028BADF28C5DB648FFF7A5
:1033B0004BFB0DF58E61B5480AF0B0FE002846D0F3
:1033C0000DF58E61B2480AF0A9FE002840F0EC81AC
:1033D00000230193FFF7A0FD8246AE48FFF734FBC0
:1033E0004AA9AB480AF09AFE002840F0AD80AA48EE
:1033F000FFF72AFB0DF59F71A848FFF725FB4A99B7
:10340000A748FFF721FBBDF82C21BDF82E41510A3A
:1034100002F01F03C2F3431201F2BC71A148FFF78F
:1034200013FB04F01F035B00C4F34512E10A9E483E
:10343000FFF70AFB0122964990A80AF005FC002834
:1034400000F0B2809948FFF7FFFA0125B0E10023B0
:1034500002934AA98D480AF061FE90BB8E48FFF79F
:10346000F3FA0DF59F718D48FFF7EEFA4A998C48F3
:10347000FFF7EAFABDF82C21BDF82E41510A02F0FF
:103480001F03C2F3431201F2BC718648FFF7DCFA56
:1034900004F01F035B00C4F34512E10A8248FFF702
:1034A000D3FA0122794990A80AF0CEFB70B9804B7B
:1034B000187AFFF75BFF7F4801F070FA01F05CFAC1
:1034C00028E07D48FFF7C0FA012571E17B48FFF74E
:1034D000BBFA01256CE17A48FFF7B6FA90A80AF02A
:1034E00008FE012564E190A80AF003FE20B9FFF769
:1034F00035FF30B900255BE17248FFF7A5FA0125D9
:1035000056E17148FFF7A0FA012551E10AA801F040
:103510004BFA88B102AB4FF480720AA990A80AF066
:10352000C3FC0028D7D102990029DCD0FF29EDD8AF
:1035300000230AAA5354E9E76448FFF785FA90A8E4
:103540000AF0D7FD012533E15B48FFF77DFA01253D
:103550002EE15F48FFF778FA90A80AF0CAFD01252E
:1035600026E190A80AF0C5FD002521E157460DF19E
:1035700028089FED438B8DED028B2646082C28BF33
:1035800008263246414602A80CF083F8DDE9022302
:10359000384600F013FC0546002839D10837B044FE
:1035A000A41BE8D1019B9A4401AB4FF480720AA995
:1035B00090A80AF079FC0028CBD1019C002CD0D037
:1035C0003B4B1B7A013B0E2B00F2E68001A252F826
:1035D00023F000BFE5360008993700089937000846
:1035E000993700086D350008993700082B36000818
:1035F000993700089937000899370008993700086B
:1036000099370008993700089937000837370008BC
:1036100039463048FFF718FA00F066FB2E48FFF7EE
:1036200013FA90A80AF065FDC2E057460DF128088C
:103630009FED138B8DED028B2646082C28BF0826A4
:103640003246414602A80CF024F8DDE90223384650
:1036500000F0E8FC054620B90837B044A41BE9D1C6
:10366000A0E739461D48FFF7EFF900F009FD1C48B7
:10367000FFF7EAF990A80AF03CFD99E0AFF300806B
:10368000FFFFFFFFFFFFFFFF6C200108A01E0108E6
:10369000041F0108342101087C200108982001083A
:1036A000AC200108C8200108F020010848210108C9
:1036B000B0C1002031290008B01E0108C01E010859
:1036C000D01E0108E01E010818210108F01E0108A3
:1036D0007021010898210108D4210108F82101086E
:1036E0003422010857460DF128089FED358B8DEDEA
:1036F000028B2646082C28BF08263246414602A8DF
:103700000BF0C7FFDDE90223384600F0DBFF05467A
:1037100020B90837B044A41BE9D143E739462A4809
:10372000FFF792F900F064FF2848FFF78DF990A8A1
:103730000AF0DFFC3CE0264BDB68B3F5906F14BF6A
:1037400020271027D0460DF128094FF0200B5A46AC
:10375000FF2102A80BF01EFF3E46A74228BF2646C7
:103760003246494602A80BF094FF3A4602A9404669
:1037700000F03EFE054620B9B844B144A41BE6D192
:1037800010E741461348FFF75FF91348FFF75CF96C
:1037900090A80AF0AEFC0BE01048FFF755F990A88E
:1037A0000AF0A7FC012503E00D48FFF74DF90125BC
:1037B00028460DF28C5DBDEC028BBDE8F08F00BF9A
:1037C000FFFFFFFFFFFFFFFF5822010894220108BF
:1037D000B0C10020B8220108F42201081823010812
:1037E0002C1F010838B501F029F801F05DF8012817
:1037F00000D038BDAA4B1B7853B3012001F0DEFA8C
:10380000012001F077F802F03BF80546FFF766F972
:103810000446A449FFF792FD002CEAD1A248FFF725
:1038200013F9A24B1B7A013B0E2B00F21081DFE84B
:1038300013F0AC000E010E010E0116000E01DD00AA
:103840000E010E010E010E010E010E010E0170009F
:10385000974808F033F9924B01221A70CDE795484A
:10386000FEF770FFC4B221469348FFF7EDF8BB2C7A
:103870002ED0AA2C49D19148FFF7E6F890490020B4
:10388000FFF75CFDFFF748FB0446FEF75BFFB0F176
:10389000FF3F00F0E4808B48FFF7D6F88A48FFF737
:1038A000D3F8824B1B7A013B0E2B00F26381DFE8D9
:1038B00013F02F01610161016101210161013601F4
:1038C00061016101610161016101610161013D010C
:1038D0007E48FFF7B9F800F0E9F900F0B1FAAA2044
:1038E00000F0FCFA7A48FFF7AFF800F0E9FAFFF7CA
:1038F000F5F800F091FA00F0F7F96E48FEF722FFB4
:10390000C1B27448FFF7A0F8B8E77348FFF79CF816
:10391000A0E07248FEF716FF00F47F442146664897
:10392000FFF792F8B4F53B4F06D0B4F52A4F28D1F3
:103930006248FFF789F8A1E76448FFF785F801209E
:1039400000F0F0FC022000F0EDFC00F0A7FD4FF4C9
:103950002A4000F00FFE5E48FFF776F800F0D2FD37
:1039600000F0BCFD012000F021FD022000F01EFD52
:103970005A48FEF7E7FE00F47F415648FFF764F827
:103980007CE75548FFF760F864E05548FEF7DAFE3B
:10399000C4B221464848FFF757F8BB2C05D0AA2CE3
:1039A00020D14648FFF750F868E74848FFF74CF841
:1039B00000F000FE00F0C8FEAA2000F013FF44480B
:1039C000FFF742F800F000FFFFF788F800F0A8FECC
:1039D00000F00EFE4248FEF7B5FEC1B23D48FFF7CB
:1039E00033F84BE73C48FFF72FF833E03148FEF758
:1039F000A9FEC4B221463048FFF726F8BB2C05D0FB
:103A0000AA2C20D12D48FFF71FF837E72F48FFF7E2
:103A10001BF800F08DFA00F061FBAA2000F08CFB8F
:103A20002B48FFF711F800F079FBFFF757F800F08B
:103A30003DFB00F025FB1F48FEF784FEC1B2254880
:103A4000FFF702F81AE72448FEF7FEFF02E02548D8
:103A5000FEF7FAFF1A490120FFF770FCC9E6201DA6
:103A6000FEF770FEB0F1FF3F7FF415AF1E48FEF782
:103A7000EBFF1E48FEF7E8FF1D48FEF7E5FF0B4B86
:103A80001B7A013B0E2B00F2A980DFE803F092A71E
:103A9000A7A77BA795A7A7A7A7A7A7A7980000BF39
:103AA000A04100203C23010854230108B0C100209C
:103AB0000CC800200078FF1F882301080C2401088F
:103AC000A0260108D4240108F4240108A823010831
:103AD000F4230108E01F0108302401081C200052D3
:103AE000202002405C24010890240108AC24010835
:103AF0006425010800F0DAF800F046F900F0F4F867
:103B00005E48FEF7A1FF5E490020FFF717FCB3E710
:103B100000F050FD00F0BCFD00F06AFDF0E700F0A1
:103B200007FA00F065FA00F0ABFAE9E7554B5B697C
:103B3000012B14D1012000F0F5FB022000F0F2FB74
:103B40000121302000F072FB0221302000F06EFBDA
:103B5000012000F02BFC022000F028FCD0E701201F
:103B600000F0E0FB0121302000F060FB012000F0BC
:103B70001DFCC5E74448FEF767FF41490120FFF7F8
:103B8000DDFB36E600F092F8FFF70AFC04463F48FA
:103B9000FEF75AFF3B4B1B7A013B0E2B69D8DFE83F
:103BA00003F05668686821685368686868686868E0
:103BB000590000F0FFFCE7E700F0BAF9E4E7314B09
:103BC0005B69012B03D0012000F0ACFBDCE7012096
:103BD00000F0A8FB022000F0A5FBD5E72C48FEF77B
:103BE00033FFD1E700F080F82A492046FFF7A6FB13
:103BF000002C7FF4FEADFFF7F9F904462649FFF7E4
:103C00009DFB002C7FF4F5ADFFF7E8FA044623494D
:103C1000FFF794FB002C7FF4ECAD2148FEF714FF76
:103C20002048FEF711FFFEF7ABFDFEF777FD01F030
:103C300027FE411B1C48FEF707FF022001F0BEF8DB
:103C4000022000F057FED4E500F01AFACCE700F0AD
:103C5000CFFCC9E70B4B5B69012B03D0012000F0BF
:103C6000A5FBC1E7012000F0A1FB022000F09EFBB4
:103C7000BAE70748FEF7E8FEB6E700BF4C250108A3
:103C800034250108B0C1002008250108B825010825
:103C9000A4250108F42501080C26010820260108A6
:103CA000402601085C2601087826010810B50A485C
:103CB000FEF748FD002801DB002010BD074C084935
:103CC0002046FEF751FD07492046FEF74DFD02480C
:103CD000FEF738FDC00FF0E7142002400820024034
:103CE00023016745AB89EFCD10B5074C2046FEF7A1
:103CF00029FD40F000412046FEF736FD2046FEF744
:103D000021FDC043C00F10BD1420024070B506460F
:103D100001F0B6FD84191B48FEF714FD10F4803F36
:103D20000AD0184D01F0ACFDA04224D22846FEF77F
:103D300009FD10F4803FF5D1124D2846FEF702FD33
:103D40004CF2FA3101402846FEF70EFD01F098FDD5
:103D500006442846FEF7F6FC10F4802F0DD001F043
:103D60008FFDB0420BD22846FEF7ECFC10F4802FFA
:103D7000F5D1002000E0012070BD0020FCE701200B
:103D8000FAE700BF1020024010B54FF47A70FFF739
:103D9000BDFF00B110BD084C2046FEF7D3FC40F437
:103DA000803141F004012046FEF7DEFC4FF47A70CA
:103DB000FFF7ACFFEEE700BF14200240F8B5044661
:103DC00016461D464FF47A70FFF7A0FF78B14FF406
:103DD0007A70FFF79BFF04460E4D2846FEF7B2FCB3
:103DE00020F001012846FEF7BFFC2046F8BD094F30
:103DF0003846FEF7A7FC40F001013846FEF7B4FC58
:103E000031462046FEF7B0FC2946201DFEF7ACFCEB
:103E1000DDE700BF1420024010B5084C2046FEF735
:103E200091FC40F080412046FEF79EFC2046FEF7C4
:103E300089FC80F08040C0F3807010BD14200240E7
:103E400010B50B48FEF77EFC10F0804F01D1012029
:103E500010BD084C08492046FEF786FC074920465D
:103E6000FEF782FC0248FEF76DFCC0F38070EFE7BE
:103E7000142002400C2002403B2A19087F6E5D4C42
:103E800008B50348FEF75EFC03460248184008BD2B
:103E90002020024000FFEF3FF8B505460C461646CD
:103EA000064F3846FEF74EFC45F0FF0520EA0501B7
:103EB000344321433846FEF757FCF8BD202002402A
:103EC00010B5054C2046FEF73DFC40F00061204651
:103ED000FEF74AFC10BD00BF1420024038B504466E
:103EE000FFF7CEFF01462246FFF7D6FF4FF47A7068
:103EF000FFF70CFF044608B1204638BD0B4D28469D
:103F0000FEF720FC40F400312846FEF72DFC4FF46C
:103F10007A70FFF7FBFE04462846FEF713FC20F4F8
:103F200000312846FEF720FCE6E700BF14200240DF
:103F300010B50A48FEF706FC002801DB002010BD82
:103F4000074C08492046FEF70FFC07492046FEF7BC
:103F50000BFC0248FEF7F6FBC00FF0E7142002400E
:103F60000820024023016745AB89EFCDF8B507462D
:103F700001F086FCC4191B48FEF7E4FB1A4B034012
:103F800053B1184E184D01F07BFCA04224D23046AC
:103F9000FEF7D8FB2842F6D1124D2846FEF7D2FB99
:103FA00048F2FA3101402846FEF7DEFB01F068FCDA
:103FB00007442846FEF7C6FB0C4B034073B12E4660
:103FC0000A4D01F05DFCB8420AD23046FEF7BAFB5A
:103FD0002842F6D1002000E00120F8BD0020FCE7D7
:103FE0000120FAE710200240100001001200010039
:103FF00010B54FF47A70FFF7B9FF00B110BD084C4F
:104000002046FEF79FFB40F4803141F0040120463A
:10401000FEF7AAFB4FF47A70FFF7A8FFEEE700BFA8
:1040200014200240F8B5044616461D464FF47A7037
:10403000FFF79CFF78B14FF47A70FFF797FF0446C3
:104040000E4D2846FEF77EFB20F001012846FEF7C4
:104050008BFB2046F8BD094F3846FEF773FB40F056
:1040600001013846FEF780FB31462046FEF77CFB17
:104070002946201DFEF778FBDDE700BF1420024033
:1040800010B54FF47A70FFF771FF074C2046FEF72A
:1040900059FB40F000412046FEF766FB2046FEF744
:1040A00051FBC043C00F10BD1420024010B54FF4A7
:1040B0007A70FFF75BFF084C2046FEF743FB40F0A9
:1040C00080412046FEF750FB2046FEF73BFB80F088
:1040D0008040C0F3807010BD1420024010B50B4822
:1040E000FEF730FB10F0804F01D1012010BD084CCD
:1040F00008492046FEF738FB07492046FEF734FB07
:104100000248FEF71FFBC0F38070EFE71420024067
:104110000C2002403B2A19087F6E5D4C10B5054CFF
:104120002046FEF70FFB40F000612046FEF71CFB27
:1041300010BD00BF1420024038B50446144D284677
:10414000FEF700FB014664F307012846FEF70CFB6F
:104150004FF47A70FFF70AFF044608B1204638BDD5
:104160000C3D2846FEF7EEFA40F400312846FEF7F3
:10417000FBFA4FF47A70FFF7F9FE04462846FEF783
:10418000E1FA20F400312846FEF7EEFAE6E700BF38
:10419000202002402DE9F04705461E4A1E4B01290A
:1041A00014BF9146994601291C4F08BF04271C4E95
:1041B0001C4B012908BF1E4601291B4B14BF9A4600
:1041C0004FF4803A01F05CFB804601E027420ED0BC
:1041D0003046FEF7B7FA0446B5F1FF3FF6D001F0DE
:1041E0004FFBA0EB0800A842F0D9012006E019EA35
:1041F000040105D11AEA040F06D10020BDE8F087BA
:104200003046FEF7B1FAF5E751463046FEF7ACFA14
:104210000020F3E70000EE970000EE170400008096
:1042200010210052102000520000018070B5054698
:1042300001F00303032B11D00C4611F0010F39D10B
:1042400014F0020F50D101214CF25030FFF7A2FFC1
:1042500002214CF25030FFF79DFF70BD2F4E3046CB
:10426000FEF770FA20F030013046FEF77DFA2C4C54
:104270002046FEF767FA20F030012046FEF774FA78
:104280003046FEF75FFA40EA05013046FEF76CFA69
:104290002046FEF757FA40EA05012046FEF764FA89
:1042A000F43C2046FEF74EFA40F010012046FEF79F
:1042B0005BFAC8E7194E3046FEF744FA20F03001A9
:1042C0003046FEF751FA3046FEF73CFA40EA050167
:1042D0003046FEF749FA3046FEF734FA40F08801DE
:1042E0003046FEF741FAABE70D4C2046FEF72AFABE
:1042F00020F030012046FEF737FA2046FEF722FA7A
:1043000040EA05012046FEF72FFA2046FEF71AFA8A
:1043100040F088012046FEF727FA94E70C2000526F
:104320000C21005238B5044610F0010F04D114F0EE
:10433000020F18D1002038BD1648FEF703FA10F01E
:10434000010FF4D0144D15492846FEF70DFA144913
:104350002846FEF709FA0F48FEF7F4F910F0010FAE
:10436000E5D00120E7E70F48FEF7ECF910F0010F68
:1043700001D10020DFE70C4C08492046FEF7F4F994
:1043800007492046FEF7F0F90648FEF7DBF900F092
:104390000100D0E70C2000520420005223016745A1
:1043A000AB89EFCD0C2100520421005238B50446F0
:1043B00010F0010F04D114F0020F0BD1002038BD12
:1043C000094D2846FEF7BEF940F001012846FEF7E8
:1043D000CBF9F0E7054C2046FEF7B4F940F00101B7
:1043E0002046FEF7C1F9E9E70C2000520C210052EB
:1043F0002DE9F04F83B081468846924600F178431C
:10440000B3F5801F16D2234C2046FEF79BF940F0EF
:1044100002010123009301940198FEF7A5F9BAF176
:10442000000F29D008F1200547466FF01F0BABEBBA
:10443000080B16E0184C2046FEF784F940F0020104
:10444000022300930194E7E7203700994CF25030A3
:10445000FFF7A0FE0346C8B920350BEB05039A45CC
:104460000AD9A9EB08063C46A01954F8041BFEF72C
:104470007BF9AC42F8D1E7E7019C2046FEF762F9F0
:1044800020F002012046FEF76FF90023184603B022
:10449000BDE8F08F0C2000520C21005210B50B48E3
:1044A000FEF750F910F0010F01D1002010BD084CAB
:1044B00008492046FEF758F907492046FEF754F907
:1044C0000248FEF73FF900F00100EFE71820005224
:1044D000082000523B2A19087F6E5D4C10B5084C2D
:1044E0002046FEF72FF940F001012046FEF73CF987
:1044F0002046FEF727F9C04300F0010010BD00BFC1
:104500001820005270B5184C2046FEF71BF940F0F9
:1045100002012046FEF728F901F0B2F904461348DB
:10452000FEF710F910F0010F0DD04CF250350F4E80
:1045300001F0A6F9001BA84214D83046FEF702F994
:1045400010F0010FF4D10948FEF7FCF810F0804F8D
:1045500001D1002007E04FF080410548FEF704F943
:10456000012000E0012070BD182000521C200052E4
:104570002420005270B5044601214CF25030FFF760
:1045800009FE054608B1284670BD02214CF25030A4
:10459000FFF700FE05460028F5D1054E3046FEF730
:1045A000D1F820F47F4121433046FEF7DDF8EAE7F9
:1045B0002020005210B50A48FEF7C4F8002801DB9D
:1045C000002010BD074C08492046FEF7CDF80749EA
:1045D0002046FEF7C9F80248FEF7B4F8C00FF0E72E
:1045E000142002400820024023016745AB89EFCD2B
:1045F00010B5074C2046FEF7A5F840F000412046D4
:10460000FEF7B2F82046FEF79DF8C043C00F10BD7C
:104610001420024070B5064601F032F984191B4897
:10462000FEF790F810F4803F0AD0184D01F028F9F9
:10463000A04224D22846FEF785F810F4803FF5D139
:10464000124D2846FEF77EF848F2FA31014028461E
:10465000FEF78AF801F014F906442846FEF772F8CE
:1046600010F4802F0DD001F00BF9B0420BD2284688
:10467000FEF768F810F4802FF5D1002000E001204B
:1046800070BD0020FCE70120FAE700BF10200240C7
:1046900010B54FF47A70FFF7BDFF00B110BD084CA4
:1046A0002046FEF74FF840F4803141F004012046E7
:1046B000FEF75AF84FF47A70FFF7ACFFEEE700BF51
:1046C00014200240F8B5044616461D464FF47A7091
:1046D000FFF7A0FF78B14FF47A70FFF79BFF044615
:1046E0000E4D2846FEF72EF820F001012846FEF771
:1046F0003BF82046F8BD094F3846FEF723F840F056
:1047000001013846FEF730F831462046FEF72CF816
:104710002946201DFEF728F8DDE700BF14200240DF
:1047200010B5084C2046FEF70DF840F080412046B9
:10473000FEF71AF82046FEF705F880F08040C0F337
:10474000807010BD1420024010B50B48FDF7FAFF31
:1047500010F0804F01D1012010BD084C08492046BF
:10476000FEF702F807492046FDF7FEFF0248FDF775
:10477000E9FFC0F38070EFE7142002400C200240F4
:104780003B2A19087F6E5D4C08B50348FDF7DAFF38
:1047900003460248184008BD2020024000FF4F3F5A
:1047A000F8B505460C461646064F3846FDF7CAFFD3
:1047B00045F0FF0520EA0501344321433846FDF763
:1047C000D3FFF8BD2020024010B5054C2046FDF770
:1047D000B9FF40F000612046FDF7C6FF10BD00BFE5
:1047E0001420024038B50446FFF7CEFF01462246AA
:1047F000FFF7D6FF4FF47A70FFF70CFF044608B1BD
:10480000204638BD0B4D2846FDF79CFF40F4003193
:104810002846FDF7A9FF4FF47A70FFF7FBFE044628
:104820002846FDF78FFF20F400312846FDF79CFF56
:10483000E6E700BF142002407047000008B54FF4BF
:104840000041134801F074FC124B1870124B1B7896
:10485000834217D101F014F8104B1B68C01A1428BA
:104860000BD90C4B1B780E4A12789A4205D00C4A91
:10487000137013B90B4B01221A70064B1A78064BB2
:104880001A7008BD00F0FCFF044B1860E2E700BF9F
:1048900000000240CDC1002034000020D0C1002023
:1048A00035000020CCC10020034B187800B97047B8
:1048B00000221A700120FAE7CCC1002008B568B1C7
:1048C0000A4BB3FBF0F3013B09480268D362C360B3
:1048D0005B08D363082104F0C3FA08BD04480368E9
:1048E0000022DA63082104F035FBF6E740420F00AE
:1048F00084C30020F8B504280ED8DFE800F0030ECA
:10490000182338000A20FFF7D9FF4FF4FA7000F09F
:10491000BDFF0020FFF7D2FFF8BD0A20FFF7CEFF52
:10492000962000F0B3FF0020FFF7C8FFF4E70A204D
:10493000FFF7C4FF4FF4967000F0A8FF0020FFF7C8
:10494000BDFFE9E705240A27962500263846FFF72C
:10495000B5FF284600F09AFF3046FFF7AFFF284624
:1049600000F094FF631E13F0FF04EFD1D4E70020A2
:10497000FFF7A4FFD0E700000023044A1370044AA5
:104980001380044A1380044A13707047E7C2002062
:10499000E4C20020E2C20020E0C20020014B186007
:1049A000704700BFD4C10020002900F009812DE923
:1049B000F843441E0844451E8C4F8D4EDFF8488254
:1049C00048E0591EC9B20A2900F2FE80A2F1300067
:1049D000C0B209280DD9A2F14101C9B205291CD9DB
:1049E000A2F16101C9B2192900F2F180A2F15700C8
:1049F000C0B23178A9B9DFF824C28CF8000081F088
:104A0000010131700B2B00F2E480DFE803F02E1877
:104A1000184C4C4C4C555C6C8488A2F13700C0B2E9
:104A2000E7E7DFF8E4E1DFF8F4C19CF800C040EA12
:104A30000C1C9EF80090CC448EF800C0DFE76D4956
:104A40000A7840EA02120A700133684A1370AC42D5
:104A500000F0B48014F8012F002A00F0B3803B78F6
:104A6000002BAED188F8003033700D2AEFD00A2A1F
:104A7000EDD03A2A40F0AF804FF000095D4B83F84B
:104A800000905D4B83F800905C4BA3F80090FF22F0
:104A900011465B480AF07EFD5A4BA3F80090534B39
:104AA00001221A70D3E755490A8840EA02120A80A7
:104AB00001334E4A1370CAE7002840F08E804B4BFA
:104AC00008221A70C3E7052800F289804A4B187043
:104AD000484B1B781BB9454B0A221A70B7E7434B6A
:104AE00009221A70B3E747490B88C3F3470CDFF874
:104AF00010E11EF80C2040EA02120EF80C200133DF
:104B00009BB20B803B4A1278B2EB530F9FD8374BC6
:104B10000A221A709BE7354B0B221A7097E7394B24
:104B20001A88344B1B78B2EB430F5AD1364B1B78A3
:104B3000002B58D1304B1B78022B19D0042B22D0DC
:104B4000002B2ED1314B1B6873B13149097809B361
:104B5000304909882948008800EB0110C2F3470258
:104B600027499847002830D0204B00221A706EE762
:104B7000234B1A785B7843EA0223012225490B80F4
:104B8000234B1A70F0E71E4B1A785B7843EA022336
:104B90000022F3E71F4909881848008840EA0140CD
:104BA000DCE7012BE0D11C4B1B7A0F2BDCD1174B20
:104BB0001B680022114610469847D5E7012004E003
:104BC00001207047012000E00020BDE8F8830020AC
:104BD000FBE70020F9E70020F7E70020F5E70020D9
:104BE000F3E70020F1E70020EFE700BFE7C2002075
:104BF000D8C10020E6C20020DFC20020E4C20020AD
:104C0000E0C10020DCC10020D9C10020D4C10020B7
:104C1000E0C20020E2C20020B0C10020DAC10020C2
:104C200008B5002201F08AFA08BD08B5012201F09A
:104C300085FA08BD38B50368B3F5C87F19D30C46AB
:104C4000002303600B78032B3ED8DFE803F0021348
:104C5000212F1F4D04212846FFF7E2FF0821284697
:104C6000FFF7E3FF10212846FFF7DFFF237801332A
:104C7000237038BD164D04212846FFF7D6FF0821C2
:104C80002846FFF7CDFF10212846FFF7CEFFEDE7BE
:104C90000F4D04212846FFF7C8FF08212846FFF7DB
:104CA000C4FF10212846FFF7BBFFDFE7084D0421B2
:104CB0002846FFF7B5FF08212846FFF7B6FF102169
:104CC0002846FFF7B2FFD1E700230B70D1E700BF02
:104CD0000010024010B50D4BA3FB00235B096422BA
:104CE00002FB130048B10A4C04212046FFF79DFF48
:104CF00010212046FFF799FF10BD082100F18040E8
:104D000000F5043001F020FAEDE700BF1F85EB51FC
:104D10000010024010B5074C04212046FFF780FF29
:104D200008212046FFF781FF10212046FFF77DFF75
:104D300010BD00BF0010024010B5074C04212046F2
:104D4000FFF773FF08212046FFF76FFF1021204671
:104D5000FFF766FF10BD00BF0010024010B5134BF7
:104D6000186801301860124B1B78032B17D8DFE846
:104D700003F00214171A0F4B1B7883B90E4C21460F
:104D80000A48FFF757FF2378032B08D9084B022264
:104D90001A70084B01221A7001E0FFF79BFF10BD4B
:104DA000FFF7B8FFFBE7FFF7C7FFF8E7ECC200200B
:104DB000F0C20020E9C20020E8C20020014B1870B8
:104DC000704700BFF0C2002008B502480AF090FA10
:104DD00072B6FEE7C026010800B595B0302200216A
:104DE00008A80AF0D7FB00230393049305930693C6
:104DF00007930193214A116C41F080511164126CA8
:104E000002F080520192019A02931D4A136823F422
:104E1000404343F480431360136803F44043029318
:104E2000029B012308934FF48033099302230E93CE
:104E30004FF480020F920422109278221192129362
:104E40000523139308A801F0ADFF98B90F2303932E
:104E500002230493002305934FF4A05306934FF4C9
:104E600080530793032103A802F006FA20B915B076
:104E70005DF804FBFFF7A8FFFFF7A6FF003802402C
:104E80000070004080B59CB000F0D4FCFFF7A4FF98
:104E90000024149415941694179418940194AA4D10
:104EA0002B6B43F010032B632B6B03F01003019368
:104EB000019B02942B6B43F080032B632B6B03F05D
:104EC00080030293029B03942B6B43F001032B633B
:104ED0002B6B03F001030393039B04942B6B43F0B0
:104EE00004032B632B6B03F004030493049B0594CE
:104EF0002B6B43F008032B632B6B03F00803059324
:104F0000059B06942B6B43F002032B632B6B03F082
:104F100002030693069BDFF8549201221C214846A7
:104F200001F00CF9DFF8488222464FF488714046C0
:104F300001F004F9854F22464FF48871384601F09C
:104F4000FDF801224021384601F0F8F81C231493A3
:104F5000012615961694179414A9484600F028FFC8
:104F60004FF48879CDF8509015961694179414A99B
:104F7000404600F01DFF4FF400431493159416941F
:104F800014A9404600F014FFCDF8509015961696DF
:104F90004FF00308CDF85C8014A9384600F008FFF4
:104FA00040231493159602231693CDF85C8014A920
:104FB000384600F0FDFE00942B6B43F480032B6316
:104FC0002B6B03F480030093009B224606213B20B9
:104FD00000F082FC3B2000F0B5FC22460621452073
:104FE00000F07AFC452000F0ADFC594B594A1A609C
:104FF0005C609C60DC605C619C611C6109940A944B
:105000000B940C94079408940D940E940F941094A0
:105010001194129413942022214614A80AF0BAFA8B
:105020004D484E4B03607723436084604FF47A739E
:10503000C36004614461846103F048FD002840F0CE
:10504000D5804FF48053099309A9434803F043FEE8
:10505000002840F0CD80404803F064FD002840F077
:10506000C98000230793089307A93B4803F0B6FFC4
:10507000002840F0C18060230D9300230E930F930E
:10508000109311931293139308220DA9324803F041
:10509000A7FD002840F0B2800023149315931693C7
:1050A000179318934FF4005219921B9314A92A488E
:1050B00003F0D8FF002840F0A380274800F048FA0A
:1050C000002314931593169317930D930E9324486E
:1050D0004FF0804202603B22426083604FF6FF72D5
:1050E000C2600361836103F0F1FC002840F08A8014
:1050F0004FF48053149314A9194803F0ECFD0028D1
:1051000040F0828000230D930E930DA9144803F004
:1051100065FF00287AD11348134B03604FF4827364
:10512000436000238360C360036143614FF40072F6
:1051300082611022C2610362436283620A23C362F6
:1051400003F042FA16E000BF0038024000040240BB
:10515000E4C40020002C014084C300200000014072
:105160003CC30020CCC300200030014000100240AE
:105170000000024000284BD12848294B03604FF41F
:105180006123436000238360C3600361082242619E
:105190008361C36104F085F800283BD105F05EFA15
:1051A00009F07AF81F48204B0360002343607F22F8
:1051B000826041F6C262C26003614361836102F0B2
:1051C000C7FA48BB194803F0E5FA0020FFF7F6FDDF
:1051D0000020FFF78FFB16491648FDF735FC1649EE
:1051E0001648FDF731FCFEF7FDFAFCE7FFF7ECFD92
:1051F000FFF7EAFDFFF7E8FDFFF7E6FDFFF7E4FD47
:10520000FFF7E2FDFFF7E0FDFFF7DEFDFFF7DCFD56
:10521000FFF7DAFDFFF7D8FDFFF7D6FDF4C2002057
:105220000010014068C50020002800403CC3002059
:10523000D0260108D8260108F0260108EC2601082E
:1052400082B0002100910B4B5A6C42F480425A64A8
:105250005A6C02F480420092009A01911A6C42F05A
:1052600080521A641B6C03F080530193019B02B0BF
:10527000704700BF0038024010B58CB004463022A1
:10528000002168460AF086F922680A4B9A4201D04A
:105290000CB010BD20230093074B0A93684602F020
:1052A000C3F820B9054B0122C3F83C2EF0E7FFF705
:1052B0008BFDF7E70028004000030800000047428C
:1052C0002DE9F04F89B000230393049305930693CF
:1052D00007930268594B9A4202D009B0BDE8F08F9B
:1052E00004460025009503F586335A6C42F40062AB
:1052F0005A645A6C02F400620092009A01951A6B8B
:1053000042F004021A631A6B02F004020192019A3D
:1053100002951A6B42F008021A631B6B03F0080334
:105320000293029B4FF4706303934FF00208CDF891
:1053300010804FF0010BCDF814B0032606960C2711
:105340000797DFF810910DEB0701484600F030FD9C
:105350004FF4805ACDF80CA0CDF810800595069634
:1053600007970DEB0701484600F022FD4FF00409B6
:10537000CDF80C90CDF81080CDF814B006960797B4
:105380000DEB07012E4800F013FD2E482E4B036055
:105390004FF0006343608560C5604FF48063036134
:1053A000C0F814A04FF4804383612023C3610562D9
:1053B000C0F8249086624FF40003C3624FF40013D8
:1053C000036300F011FB002831D11E4B23649C6362
:1053D0001E481F4B03604FF000634360402383600F
:1053E0000023C3604FF4806202614FF48052426137
:1053F0004FF4804282612022C2610362042343622F
:10540000032383624FF40003C3624FF4001303636A
:1054100000F0EAFA70B90D4BE3639C6300220521AA
:10542000312000F059FA312000F08CFA55E7FFF7EF
:10543000CBFCCAE7FFF7C8FCEDE700BF002C01403A
:10544000000C024084C400205864024024C40020A0
:10545000A064024000080240F0B589B00023039325
:10546000049305930693079302681A4B9A4201D05E
:1054700009B0F0BD0021019103F584335A6C42F468
:1054800080525A645A6C02F480520192019A02913D
:105490001A6B42F001021A631B6B03F001030293C3
:1054A000029BA02303930227049703260696052553
:1054B0000795094C03A9204600F07AFC402303938A
:1054C0000497012305930696079503A9204600F04B
:1054D0006FFCCDE7003001400000024000B583B012
:1054E0000368194A934205D0B3F1804F16D003B038
:1054F0005DF804FB00210091144B5A6C42F001024C
:105500005A645B6C03F001030093009B0A46192068
:1055100000F0E2F9192000F015FAE8E70021019106
:1055200003F50E331A6C42F001021A641B6C03F08F
:1055300001030193019B0A461C2000F0CDF91C20B9
:1055400000F000FAD3E700BF00000140003802403D
:1055500000B587B00023019302930393049305934E
:105560000268104B9A4202D007B05DF804FB00239A
:1055700000930D4B1A6B42F010021A631B6B03F081
:1055800010030093009B4FF40053019302230293F6
:10559000032304930123059301A9044800F008FCA8
:1055A000E2E700BF00000140003802400010024066
:1055B000F0B589B0002303930493059306930793F2
:1055C000026803F1804303F588339A4201D009B0A1
:1055D000F0BD0024009403F594335A6C42F010029D
:1055E0005A645A6C02F010020092009A01941A6BED
:1055F00042F001021A631A6B02F001020192019A51
:1056000002941A6B42F002021A631B6B03F002034E
:105610000293029B4FF4007303930227049703261F
:1056200006960725079503A9064800F0C1FB8023CD
:105630000393049705940696079503A9024800F082
:10564000B7FBC4E70000024000040240FEE7FEE7AB
:10565000FEE7FEE7FEE770477047704708B500F0C9
:1056600003F9FFF77BFBFFF7E7F808BD08B5024831
:1056700003F0D4F808BD00BF84C3002008B5024879
:1056800003F0CCF808BD00BF3CC3002008B50248B9
:1056900002F048FE08BD00BFE4C4002008B502487F
:1056A00000F096FA08BD00BF84C4002008B5024887
:1056B00000F08EFF08BD00BF6CCF002008B5024887
:1056C00000F086FA08BD00BF24C400200120704706
:1056D00008B509F0B1FF162303604FF0FF3008BD95
:1056E00008B509F0A9FF16230360FEE770B5161E82
:1056F00007DD0C468D19AFF3008004F8010BA542BD
:10570000F9D1304670BD70B5161E07DD0C468D19F7
:1057100014F8010BFDF788F9A542F9D1304670BDA8
:105720004FF0FF3070474FF400534B60002070473C
:10573000012070470020704708B503460C4A1268E4
:1057400052B10B4A106803440A4A0B49521A934259
:1057500006D8074A136008BD054A08491160F0E7FA
:1057600009F06AFF0C2303604FF0FF30F3E700BF3E
:1057700088C500200000032000200000A0D50020E4
:10578000034AD2F8883043F47003C2F88830704777
:1057900000ED00E0DFF834D0FFF7F2FF0C480D49D0
:1057A0000D4A002302E0D458C4500433C4188C427C
:1057B000F9D30A4A0A4C002301E013600432A242E2
:1057C000FBD309F03FFFFFF75DFB704700000320AC
:1057D0000000002000030020BC300108000300206E
:1057E0009CD50020FEE7000010B504460E4B1A7849
:1057F0004FF47A73B3FBF2F30C4A1068B0FBF3F08A
:1058000000F0C0F868B90F2C01D901200AE000228D
:1058100021464FF0FF3000F05FF8054B1C60002080
:1058200000E0012010BD00BF3C0000203800002037
:105830004000002008B50B4B1A6842F400721A6051
:105840001A6842F480621A601A6842F480721A6020
:10585000032000F02FF80020FFF7C6FFFFF7F0FC51
:10586000002008BD003C0240034A1168034B1B782E
:105870000B441360704700BF8CC500203C00002023
:10588000014B1868704700BF8CC5002038B504462E
:10589000FFF7F6FF0546B4F1FF3F02D0044B1B783B
:1058A0001C44FFF7EDFF401BA042FAD338BD00BFF8
:1058B0003C0000200749CA68030203F4E06322F4B5
:1058C000E0621204120C134343F0BF6343F400334D
:1058D000CB60704700ED00E000B5184BDB68C3F308
:1058E0000223C3F1070CBCF1040F28BF4FF0040CD6
:1058F00003F1040EBEF1060F8CBF033B00234FF0F3
:10590000FF3E0EFA0CFC21EA0C0199400EFA03FE50
:1059100022EA0E021143002809DB0901C9B200F195
:10592000604000F5614080F800135DF804FB00F072
:105930000F000901C9B2024B1954F6E700ED00E06F
:1059400014ED00E0002807DB410900F01F000123EF
:105950008340024A42F82130704700BF00E100E076
:1059600000280CDB430900F01F0001228240203395
:10597000034941F82320BFF34F8FBFF36F8F704768
:1059800000E100E00138B0F1807F0BD24FF0E0235E
:105990005861054AF02182F82310002098610722FF
:1059A0001A6170470120704700ED00E010B4024614
:1059B0000368D8B210380A49A1FB00410909094C13
:1059C000615CD1655F2887BF6FF30903181D23F45D
:1059D0007F7020F0030090655DF8044B704700BFB6
:1059E000ABAAAAAAE427010838B50446FFF748FF86
:1059F000002C00F08C800546022384F8353000230B
:105A000084F834302268136823F00103136023689C
:105A10001A6812F0010F0AD0FFF732FF431B052B63
:105A2000F5D920236365032084F8350038BD1A6852
:105A3000384911406268A0680243E0680243206967
:105A4000024360690243A0690243E0690243206A9D
:105A500002430A43616A042921D01A6021684A6915
:105A600022F00702636A1A43042B0AD1A06A024398
:105A7000E36A33B1A5693DBB01281FD030F00200B5
:105A800012D04A612046FFF791FFE26D3F23934019
:105A9000836000206065012384F83530C6E7E16A41
:105AA000206B01430A43D8E7C3F30063002BE8D01F
:105AB00040236365012084F83500B7E7B3F1C07F68
:105AC00014BF00230123F1E7B5F5005F08D00228D9
:105AD000EED90328D5D1C3F30063002BD1D0E7E77B
